{
  "contractName": "TimeTracking",
  "abi": [
    {
      "inputs": [],
      "stateMutability": "nonpayable",
      "type": "constructor"
    },
    {
      "anonymous": false,
      "inputs": [
        {
          "indexed": true,
          "internalType": "address",
          "name": "employee",
          "type": "address"
        },
        {
          "indexed": false,
          "internalType": "string",
          "name": "action",
          "type": "string"
        },
        {
          "indexed": false,
          "internalType": "uint256",
          "name": "timestamp",
          "type": "uint256"
        },
        {
          "indexed": false,
          "internalType": "uint256",
          "name": "day",
          "type": "uint256"
        },
        {
          "indexed": false,
          "internalType": "string",
          "name": "locationName",
          "type": "string"
        },
        {
          "indexed": false,
          "internalType": "string",
          "name": "taskDescription",
          "type": "string"
        }
      ],
      "name": "AuditLogCreated",
      "type": "event"
    },
    {
      "anonymous": false,
      "inputs": [
        {
          "indexed": true,
          "internalType": "address",
          "name": "employee",
          "type": "address"
        }
      ],
      "name": "AuthenticationRevoked",
      "type": "event"
    },
    {
      "anonymous": false,
      "inputs": [
        {
          "indexed": true,
          "internalType": "address",
          "name": "employee",
          "type": "address"
        }
      ],
      "name": "BreakEnded",
      "type": "event"
    },
    {
      "anonymous": false,
      "inputs": [
        {
          "indexed": true,
          "internalType": "address",
          "name": "employee",
          "type": "address"
        },
        {
          "indexed": false,
          "internalType": "uint256",
          "name": "day",
          "type": "uint256"
        },
        {
          "indexed": false,
          "internalType": "uint256",
          "name": "breakCount",
          "type": "uint256"
        },
        {
          "indexed": false,
          "internalType": "uint256",
          "name": "breakHours",
          "type": "uint256"
        },
        {
          "indexed": false,
          "internalType": "uint256",
          "name": "breakMinutes",
          "type": "uint256"
        },
        {
          "indexed": false,
          "internalType": "uint256",
          "name": "breakSeconds",
          "type": "uint256"
        }
      ],
      "name": "BreakInformationLogged",
      "type": "event"
    },
    {
      "anonymous": false,
      "inputs": [
        {
          "indexed": true,
          "internalType": "address",
          "name": "employee",
          "type": "address"
        }
      ],
      "name": "BreakStarted",
      "type": "event"
    },
    {
      "anonymous": false,
      "inputs": [
        {
          "indexed": true,
          "internalType": "address",
          "name": "employee",
          "type": "address"
        },
        {
          "indexed": false,
          "internalType": "string",
          "name": "locationName",
          "type": "string"
        }
      ],
      "name": "EmployeeAddedToLocation",
      "type": "event"
    },
    {
      "anonymous": false,
      "inputs": [
        {
          "indexed": true,
          "internalType": "address",
          "name": "employee",
          "type": "address"
        }
      ],
      "name": "EmployeeAuthenticated",
      "type": "event"
    },
    {
      "anonymous": false,
      "inputs": [
        {
          "indexed": true,
          "internalType": "address",
          "name": "employee",
          "type": "address"
        }
      ],
      "name": "EmployeeClockedIn",
      "type": "event"
    },
    {
      "anonymous": false,
      "inputs": [
        {
          "indexed": true,
          "internalType": "address",
          "name": "employee",
          "type": "address"
        }
      ],
      "name": "EmployeeClockedOut",
      "type": "event"
    },
    {
      "anonymous": false,
      "inputs": [
        {
          "indexed": true,
          "internalType": "address",
          "name": "employee",
          "type": "address"
        },
        {
          "indexed": false,
          "internalType": "string",
          "name": "locationName",
          "type": "string"
        }
      ],
      "name": "EmployeeRemovedFromLocation",
      "type": "event"
    },
    {
      "anonymous": false,
      "inputs": [
        {
          "indexed": false,
          "internalType": "string",
          "name": "locationName",
          "type": "string"
        }
      ],
      "name": "LocationAdded",
      "type": "event"
    },
    {
      "anonymous": false,
      "inputs": [
        {
          "indexed": false,
          "internalType": "string",
          "name": "_locationName",
          "type": "string"
        }
      ],
      "name": "LocationRemoved",
      "type": "event"
    },
    {
      "anonymous": false,
      "inputs": [
        {
          "indexed": true,
          "internalType": "address",
          "name": "supervisor",
          "type": "address"
        }
      ],
      "name": "SupervisorAdded",
      "type": "event"
    },
    {
      "anonymous": false,
      "inputs": [
        {
          "indexed": true,
          "internalType": "address",
          "name": "supervisor",
          "type": "address"
        }
      ],
      "name": "SupervisorRemoved",
      "type": "event"
    },
    {
      "inputs": [
        {
          "internalType": "uint256",
          "name": "",
          "type": "uint256"
        }
      ],
      "name": "employeeAddresses",
      "outputs": [
        {
          "internalType": "address",
          "name": "",
          "type": "address"
        }
      ],
      "stateMutability": "view",
      "type": "function"
    },
    {
      "inputs": [],
      "name": "owner",
      "outputs": [
        {
          "internalType": "address",
          "name": "",
          "type": "address"
        }
      ],
      "stateMutability": "view",
      "type": "function"
    },
    {
      "inputs": [],
      "name": "getAllEmployees",
      "outputs": [
        {
          "internalType": "string",
          "name": "",
          "type": "string"
        }
      ],
      "stateMutability": "view",
      "type": "function"
    },
    {
      "inputs": [
        {
          "internalType": "string",
          "name": "_locationName",
          "type": "string"
        }
      ],
      "name": "addLocation",
      "outputs": [],
      "stateMutability": "nonpayable",
      "type": "function"
    },
    {
      "inputs": [
        {
          "internalType": "string",
          "name": "_locationName",
          "type": "string"
        }
      ],
      "name": "removeLocation",
      "outputs": [],
      "stateMutability": "nonpayable",
      "type": "function"
    },
    {
      "inputs": [
        {
          "internalType": "address",
          "name": "_employee",
          "type": "address"
        },
        {
          "internalType": "string",
          "name": "_locationName",
          "type": "string"
        },
        {
          "internalType": "enum TimeTracking.EmployeeType",
          "name": "_employeeType",
          "type": "uint8"
        },
        {
          "internalType": "string",
          "name": "_task",
          "type": "string"
        },
        {
          "internalType": "uint256",
          "name": "_requiredWorkHours",
          "type": "uint256"
        }
      ],
      "name": "addEmployeeToLocation",
      "outputs": [],
      "stateMutability": "nonpayable",
      "type": "function"
    },
    {
      "inputs": [
        {
          "internalType": "address",
          "name": "_supervisor",
          "type": "address"
        }
      ],
      "name": "addSupervisor",
      "outputs": [],
      "stateMutability": "nonpayable",
      "type": "function"
    },
    {
      "inputs": [
        {
          "internalType": "address",
          "name": "_supervisor",
          "type": "address"
        }
      ],
      "name": "removeSupervisor",
      "outputs": [],
      "stateMutability": "nonpayable",
      "type": "function"
    },
    {
      "inputs": [
        {
          "internalType": "address",
          "name": "_employee",
          "type": "address"
        }
      ],
      "name": "authenticateEmployee",
      "outputs": [],
      "stateMutability": "nonpayable",
      "type": "function"
    },
    {
      "inputs": [
        {
          "internalType": "address",
          "name": "_employee",
          "type": "address"
        }
      ],
      "name": "removeEmployeeFromLocation",
      "outputs": [],
      "stateMutability": "nonpayable",
      "type": "function"
    },
    {
      "inputs": [
        {
          "internalType": "address",
          "name": "_employee",
          "type": "address"
        }
      ],
      "name": "revokeAuthentication",
      "outputs": [],
      "stateMutability": "nonpayable",
      "type": "function"
    },
    {
      "inputs": [],
      "name": "clockIn",
      "outputs": [],
      "stateMutability": "nonpayable",
      "type": "function"
    },
    {
      "inputs": [],
      "name": "clockOut",
      "outputs": [],
      "stateMutability": "nonpayable",
      "type": "function"
    },
    {
      "inputs": [],
      "name": "startBreak",
      "outputs": [],
      "stateMutability": "nonpayable",
      "type": "function"
    },
    {
      "inputs": [],
      "name": "endBreak",
      "outputs": [],
      "stateMutability": "nonpayable",
      "type": "function"
    },
    {
      "inputs": [
        {
          "internalType": "address",
          "name": "_employee",
          "type": "address"
        }
      ],
      "name": "getEmployeeTotalTime",
      "outputs": [
        {
          "internalType": "uint256",
          "name": "",
          "type": "uint256"
        },
        {
          "internalType": "uint256",
          "name": "",
          "type": "uint256"
        },
        {
          "internalType": "uint256",
          "name": "",
          "type": "uint256"
        }
      ],
      "stateMutability": "view",
      "type": "function"
    },
    {
      "inputs": [
        {
          "internalType": "address",
          "name": "_address",
          "type": "address"
        }
      ],
      "name": "isOwner",
      "outputs": [
        {
          "internalType": "bool",
          "name": "",
          "type": "bool"
        }
      ],
      "stateMutability": "view",
      "type": "function"
    },
    {
      "inputs": [
        {
          "internalType": "address",
          "name": "_address",
          "type": "address"
        }
      ],
      "name": "isSupervisor",
      "outputs": [
        {
          "internalType": "bool",
          "name": "",
          "type": "bool"
        }
      ],
      "stateMutability": "view",
      "type": "function"
    },
    {
      "inputs": [
        {
          "internalType": "address",
          "name": "_address",
          "type": "address"
        }
      ],
      "name": "isEmployee",
      "outputs": [
        {
          "internalType": "bool",
          "name": "",
          "type": "bool"
        }
      ],
      "stateMutability": "view",
      "type": "function"
    },
    {
      "inputs": [
        {
          "internalType": "string",
          "name": "_locationName",
          "type": "string"
        }
      ],
      "name": "locationExists",
      "outputs": [
        {
          "internalType": "bool",
          "name": "",
          "type": "bool"
        }
      ],
      "stateMutability": "view",
      "type": "function"
    }
  ],
  "bytecode": "0x608060405234801561001057600080fd5b50336000806101000a81548173ffffffffffffffffffffffffffffffffffffffff021916908373ffffffffffffffffffffffffffffffffffffffff16021790555060018060003373ffffffffffffffffffffffffffffffffffffffff1673ffffffffffffffffffffffffffffffffffffffff16815260200190815260200160002060006101000a81548160ff021916908315150217905550615ab580620000b86000396000f3fe608060405234801561001057600080fd5b506004361061012c5760003560e01c806381a24459116100ad578063d89aa93911610071578063d89aa93914610319578063e3366fed14610335578063ea66543f14610353578063ed4928c814610383578063f260842e1461038d5761012c565b806381a24459146102755780638da5cb5b146102a5578063a0d9391d146102c3578063a876b1c0146102df578063c80757c7146102e95761012c565b806361804e8f116100f457806361804e8f146101bf5780637128defb146101db5780637521720b146101f75780637563d7bb146102275780637c214d00146102435761012c565b806329d10b6e146101315780632f54bf6e1461014d57806353376d1f1461017d57806353d6fcec146101995780635fddb088146101a3575b600080fd5b61014b60048036038101906101469190614477565b610397565b005b61016760048036038101906101629190614477565b610607565b6040516101749190615202565b60405180910390f35b61019760048036038101906101929190614477565b610660565b005b6101a1610888565b005b6101bd60048036038101906101b89190614550565b610ebc565b005b6101d960048036038101906101d49190614550565b6110ec565b005b6101f560048036038101906101f09190614477565b6114a8565b005b610211600480360381019061020c91906145d6565b611718565b60405161021e91906151e7565b60405180910390f35b610241600480360381019061023c91906144a0565b611757565b005b61025d60048036038101906102589190614477565b611d5e565b60405161026c939291906155cb565b60405180910390f35b61028f600480360381019061028a9190614477565b611eef565b60405161029c9190615202565b60405180910390f35b6102ad611f45565b6040516102ba91906151e7565b60405180910390f35b6102dd60048036038101906102d89190614477565b611f69565b005b6102e761214d565b005b61030360048036038101906102fe9190614595565b61263d565b6040516103109190615202565b60405180910390f35b610333600480360381019061032e9190614477565b612721565b005b61033d612a4c565b60405161034a9190615241565b60405180910390f35b61036d60048036038101906103689190614477565b612e4c565b60405161037a9190615202565b60405180910390f35b61038b612ea2565b005b6103956132d9565b005b60008054906101000a900473ffffffffffffffffffffffffffffffffffffffff1673ffffffffffffffffffffffffffffffffffffffff163373ffffffffffffffffffffffffffffffffffffffff1614610425576040517f08c379a000000000000000000000000000000000000000000000000000000000815260040161041c906154cb565b60405180910390fd5b600073ffffffffffffffffffffffffffffffffffffffff168173ffffffffffffffffffffffffffffffffffffffff161415610495576040517f08c379a000000000000000000000000000000000000000000000000000000000815260040161048c9061552b565b60405180910390fd5b61049e816137e8565b6104dd576040517f08c379a00000000000000000000000000000000000000000000000000000000081526004016104d4906152eb565b60405180910390fd5b600160008273ffffffffffffffffffffffffffffffffffffffff1673ffffffffffffffffffffffffffffffffffffffff16815260200190815260200160002060009054906101000a900460ff161561056a576040517f08c379a00000000000000000000000000000000000000000000000000000000081526004016105619061554b565b60405180910390fd5b60018060008373ffffffffffffffffffffffffffffffffffffffff1673ffffffffffffffffffffffffffffffffffffffff16815260200190815260200160002060006101000a81548160ff0219169083151502179055508073ffffffffffffffffffffffffffffffffffffffff167f4f67e8d7a68f2994d8437a44f3ea61ca471133fdbf211ad77410f8dbd25ddc3860405160405180910390a250565b60008060009054906101000a900473ffffffffffffffffffffffffffffffffffffffff1673ffffffffffffffffffffffffffffffffffffffff168273ffffffffffffffffffffffffffffffffffffffff16149050919050565b60008054906101000a900473ffffffffffffffffffffffffffffffffffffffff1673ffffffffffffffffffffffffffffffffffffffff163373ffffffffffffffffffffffffffffffffffffffff16146106ee576040517f08c379a00000000000000000000000000000000000000000000000000000000081526004016106e5906154cb565b60405180910390fd5b600073ffffffffffffffffffffffffffffffffffffffff168173ffffffffffffffffffffffffffffffffffffffff16141561075e576040517f08c379a0000000000000000000000000000000000000000000000000000000008152600401610755906155ab565b60405180910390fd5b600560008273ffffffffffffffffffffffffffffffffffffffff1673ffffffffffffffffffffffffffffffffffffffff16815260200190815260200160002060009054906101000a900460ff166107ea576040517f08c379a00000000000000000000000000000000000000000000000000000000081526004016107e19061550b565b60405180910390fd5b6000600560008373ffffffffffffffffffffffffffffffffffffffff1673ffffffffffffffffffffffffffffffffffffffff16815260200190815260200160002060006101000a81548160ff0219169083151502179055508073ffffffffffffffffffffffffffffffffffffffff167f81e72379430ba5d943c0ca71e4687a500f03b575c7a88bf6d26ba2ef12c8a76f60405160405180910390a250565b600260003373ffffffffffffffffffffffffffffffffffffffff1673ffffffffffffffffffffffffffffffffffffffff16815260200190815260200160002060009054906101000a900460ff16801561098757506004600360003373ffffffffffffffffffffffffffffffffffffffff1673ffffffffffffffffffffffffffffffffffffffff16815260200190815260200160002060405161092a91906151b5565b908152602001604051809103902060003373ffffffffffffffffffffffffffffffffffffffff1673ffffffffffffffffffffffffffffffffffffffff16815260200190815260200160002060070160009054906101000a900460ff165b6109c6576040517f08c379a00000000000000000000000000000000000000000000000000000000081526004016109bd9061556b565b60405180910390fd5b600560003373ffffffffffffffffffffffffffffffffffffffff1673ffffffffffffffffffffffffffffffffffffffff16815260200190815260200160002060009054906101000a900460ff16610a52576040517f08c379a0000000000000000000000000000000000000000000000000000000008152600401610a499061550b565b60405180910390fd5b6000600360003373ffffffffffffffffffffffffffffffffffffffff1673ffffffffffffffffffffffffffffffffffffffff1681526020019081526020016000208054610a9e9061585e565b80601f0160208091040260200160405190810160405280929190818152602001828054610aca9061585e565b8015610b175780601f10610aec57610100808354040283529160200191610b17565b820191906000526020600020905b815481529060010190602001808311610afa57829003601f168201915b505050505090506000815111610b62576040517f08c379a0000000000000000000000000000000000000000000000000000000008152600401610b599061548b565b60405180910390fd5b6000600482604051610b74919061513f565b908152602001604051809103902060003373ffffffffffffffffffffffffffffffffffffffff1673ffffffffffffffffffffffffffffffffffffffff16815260200190815260200160002090508060040160009054906101000a900460ff16610c12576040517f08c379a0000000000000000000000000000000000000000000000000000000008152600401610c09906154eb565b60405180910390fd5b8060040160019054906101000a900460ff1615610c64576040517f08c379a0000000000000000000000000000000000000000000000000000000008152600401610c5b9061538b565b60405180910390fd5b6000816003015442610c7691906157a0565b905060008083600801600085600301548152602001908152602001600020905060005b8180549050811015610d3457600060096000848481548110610ce4577f4e487b7100000000000000000000000000000000000000000000000000000000600052603260045260246000fd5b90600052602060002001548152602001908152602001600020905080600001548160010154610d1391906157a0565b84610d1e91906156bf565b9350508080610d2c90615890565b915050610c99565b5060008284610d4391906157a0565b90506000610e1082610d559190615715565b90506000603c610e1084610d699190615907565b610d739190615715565b9050603c83610d829190615907565b92508660060154821115610dc257866006015482610da091906157a0565b876009016000828254610db391906156bf565b92505081905550866006015491505b81876000016000828254610dd691906156bf565b9250508190555080876001016000828254610df191906156bf565b9250508190555082876002016000828254610e0c91906156bf565b9250508190555060008760040160006101000a81548160ff0219169083151502179055503373ffffffffffffffffffffffffffffffffffffffff167f381e085d07e0672fbfd1bfa1aaf4e650043284900d717ca206d524f4658b333a60405160405180910390a2610eb2336040518060400160405280600981526020017f436c6f636b204f75740000000000000000000000000000000000000000000000815250613859565b5050505050505050565b600160003373ffffffffffffffffffffffffffffffffffffffff1673ffffffffffffffffffffffffffffffffffffffff16815260200190815260200160002060009054906101000a900460ff1680610f5f575060008054906101000a900473ffffffffffffffffffffffffffffffffffffffff1673ffffffffffffffffffffffffffffffffffffffff163373ffffffffffffffffffffffffffffffffffffffff16145b610f9e576040517f08c379a0000000000000000000000000000000000000000000000000000000008152600401610f959061542b565b60405180910390fd5b60008282905011610fe4576040517f08c379a0000000000000000000000000000000000000000000000000000000008152600401610fdb9061534b565b60405180910390fd5b61103182828080601f016020809104026020016040519081016040528093929190818152602001838380828437600081840152601f19601f8201169050808301925050505050505061263d565b15611071576040517f08c379a0000000000000000000000000000000000000000000000000000000008152600401611068906154ab565b60405180910390fd5b60088282909180600181540180825580915050600190039060005260206000200160009091929091929091929091925091906110ae929190614190565b507f290f6f4d7e1481b6ad9b90bea1df5f5f1651ecb2e468e47e09297c11efbe44c382826040516110e092919061521d565b60405180910390a15050565b600160003373ffffffffffffffffffffffffffffffffffffffff1673ffffffffffffffffffffffffffffffffffffffff16815260200190815260200160002060009054906101000a900460ff168061118f575060008054906101000a900473ffffffffffffffffffffffffffffffffffffffff1673ffffffffffffffffffffffffffffffffffffffff163373ffffffffffffffffffffffffffffffffffffffff16145b6111ce576040517f08c379a00000000000000000000000000000000000000000000000000000000081526004016111c59061542b565b60405180910390fd5b60008282905011611214576040517f08c379a000000000000000000000000000000000000000000000000000000000815260040161120b9061534b565b60405180910390fd5b61126182828080601f016020809104026020016040519081016040528093929190818152602001838380828437600081840152601f19601f8201169050808301925050505050505061263d565b6112a0576040517f08c379a0000000000000000000000000000000000000000000000000000000008152600401611297906153eb565b60405180910390fd5b60005b6008805490508110156114a25782826040516020016112c3929190615126565b6040516020818303038152906040528051906020012060088281548110611313577f4e487b7100000000000000000000000000000000000000000000000000000000600052603260045260246000fd5b9060005260206000200160405160200161132d91906151b5565b60405160208183030381529060405280519060200120141561148f576008600160088054905061135d91906157a0565b81548110611394577f4e487b7100000000000000000000000000000000000000000000000000000000600052603260045260246000fd5b90600052602060002001600882815481106113d8577f4e487b7100000000000000000000000000000000000000000000000000000000600052603260045260246000fd5b906000526020600020019080546113ee9061585e565b6113f9929190614216565b506008805480611432577f4e487b7100000000000000000000000000000000000000000000000000000000600052603160045260246000fd5b60019003818190600052602060002001600061144e91906142a3565b90557f955609e1fea433c21f4462add7effc5ec44af9708d0a63ce91340c1a26339ccd838360405161148192919061521d565b60405180910390a1506114a4565b808061149a90615890565b9150506112a3565b505b5050565b60008054906101000a900473ffffffffffffffffffffffffffffffffffffffff1673ffffffffffffffffffffffffffffffffffffffff163373ffffffffffffffffffffffffffffffffffffffff1614611536576040517f08c379a000000000000000000000000000000000000000000000000000000000815260040161152d906154cb565b60405180910390fd5b600073ffffffffffffffffffffffffffffffffffffffff168173ffffffffffffffffffffffffffffffffffffffff1614156115a6576040517f08c379a000000000000000000000000000000000000000000000000000000000815260040161159d9061552b565b60405180910390fd5b6115af816137e8565b6115ee576040517f08c379a00000000000000000000000000000000000000000000000000000000081526004016115e5906152eb565b60405180910390fd5b600160008273ffffffffffffffffffffffffffffffffffffffff1673ffffffffffffffffffffffffffffffffffffffff16815260200190815260200160002060009054906101000a900460ff1661167a576040517f08c379a0000000000000000000000000000000000000000000000000000000008152600401611671906153cb565b60405180910390fd5b6000600160008373ffffffffffffffffffffffffffffffffffffffff1673ffffffffffffffffffffffffffffffffffffffff16815260200190815260200160002060006101000a81548160ff0219169083151502179055508073ffffffffffffffffffffffffffffffffffffffff167fcb4e617f9131ff1ae394048b68dfef7afd2179bbdfd0e78477f7a8a32b30cf9660405160405180910390a250565b6006818154811061172857600080fd5b906000526020600020016000915054906101000a900473ffffffffffffffffffffffffffffffffffffffff1681565b600160003373ffffffffffffffffffffffffffffffffffffffff1673ffffffffffffffffffffffffffffffffffffffff16815260200190815260200160002060009054906101000a900460ff16806117fa575060008054906101000a900473ffffffffffffffffffffffffffffffffffffffff1673ffffffffffffffffffffffffffffffffffffffff163373ffffffffffffffffffffffffffffffffffffffff16145b611839576040517f08c379a00000000000000000000000000000000000000000000000000000000081526004016118309061542b565b60405180910390fd5b600073ffffffffffffffffffffffffffffffffffffffff168773ffffffffffffffffffffffffffffffffffffffff1614156118a9576040517f08c379a00000000000000000000000000000000000000000000000000000000081526004016118a0906155ab565b60405180910390fd5b6118b2876137e8565b6118f1576040517f08c379a00000000000000000000000000000000000000000000000000000000081526004016118e8906152eb565b60405180910390fd5b6000811015611935576040517f08c379a000000000000000000000000000000000000000000000000000000000815260040161192c9061546b565b60405180910390fd5b6000838390501161197b576040517f08c379a00000000000000000000000000000000000000000000000000000000081526004016119729061544b565b60405180910390fd5b6119c886868080601f016020809104026020016040519081016040528093929190818152602001838380828437600081840152601f19601f8201169050808301925050505050505061263d565b611a07576040517f08c379a00000000000000000000000000000000000000000000000000000000081526004016119fe906153eb565b60405180910390fd5b60048686604051611a19929190615126565b908152602001604051809103902060008873ffffffffffffffffffffffffffffffffffffffff1673ffffffffffffffffffffffffffffffffffffffff16815260200190815260200160002060070160009054906101000a900460ff1615611ab5576040517f08c379a0000000000000000000000000000000000000000000000000000000008152600401611aac906153ab565b60405180910390fd5b600060048787604051611ac9929190615126565b908152602001604051809103902060008973ffffffffffffffffffffffffffffffffffffffff1673ffffffffffffffffffffffffffffffffffffffff1681526020019081526020016000209050600081600001819055506000816003018190555060008160040160016101000a81548160ff02191690831515021790555060008160040160006101000a81548160ff021916908315150217905550848160040160026101000a81548160ff02191690836002811115611bb1577f4e487b7100000000000000000000000000000000000000000000000000000000600052602160045260246000fd5b02179055508383826005019190611bc9929190614190565b5081816006018190555060018160070160006101000a81548160ff021916908315150217905550600081600901819055508686600360008b73ffffffffffffffffffffffffffffffffffffffff1673ffffffffffffffffffffffffffffffffffffffff1681526020019081526020016000209190611c48929190614190565b506001600260008a73ffffffffffffffffffffffffffffffffffffffff1673ffffffffffffffffffffffffffffffffffffffff16815260200190815260200160002060006101000a81548160ff0219169083151502179055506006889080600181540180825580915050600190039060005260206000200160009091909190916101000a81548173ffffffffffffffffffffffffffffffffffffffff021916908373ffffffffffffffffffffffffffffffffffffffff1602179055508773ffffffffffffffffffffffffffffffffffffffff167fe6bd32050d04d05d29770b733dee12eba70d2e5016f263b40552793fccf84fbe8888604051611d4c92919061521d565b60405180910390a25050505050505050565b600080600080600360008673ffffffffffffffffffffffffffffffffffffffff1673ffffffffffffffffffffffffffffffffffffffff1681526020019081526020016000208054611dae9061585e565b80601f0160208091040260200160405190810160405280929190818152602001828054611dda9061585e565b8015611e275780601f10611dfc57610100808354040283529160200191611e27565b820191906000526020600020905b815481529060010190602001808311611e0a57829003601f168201915b505050505090506000815111611e72576040517f08c379a0000000000000000000000000000000000000000000000000000000008152600401611e699061540b565b60405180910390fd5b6000600482604051611e84919061513f565b908152602001604051809103902060008773ffffffffffffffffffffffffffffffffffffffff1673ffffffffffffffffffffffffffffffffffffffff168152602001908152602001600020905080600001548160010154826002015494509450945050509193909250565b6000600160008373ffffffffffffffffffffffffffffffffffffffff1673ffffffffffffffffffffffffffffffffffffffff16815260200190815260200160002060009054906101000a900460ff169050919050565b60008054906101000a900473ffffffffffffffffffffffffffffffffffffffff1681565b60008054906101000a900473ffffffffffffffffffffffffffffffffffffffff1673ffffffffffffffffffffffffffffffffffffffff163373ffffffffffffffffffffffffffffffffffffffff1614611ff7576040517f08c379a0000000000000000000000000000000000000000000000000000000008152600401611fee906154cb565b60405180910390fd5b600073ffffffffffffffffffffffffffffffffffffffff168173ffffffffffffffffffffffffffffffffffffffff161415612067576040517f08c379a000000000000000000000000000000000000000000000000000000000815260040161205e906155ab565b60405180910390fd5b612070816137e8565b6120af576040517f08c379a00000000000000000000000000000000000000000000000000000000081526004016120a6906152eb565b60405180910390fd5b6001600560008373ffffffffffffffffffffffffffffffffffffffff1673ffffffffffffffffffffffffffffffffffffffff16815260200190815260200160002060006101000a81548160ff0219169083151502179055508073ffffffffffffffffffffffffffffffffffffffff167fb6609f736cf901dd9c255910d18c003f17e19b82698c8d277097a3386c7d744c60405160405180910390a250565b600260003373ffffffffffffffffffffffffffffffffffffffff1673ffffffffffffffffffffffffffffffffffffffff16815260200190815260200160002060009054906101000a900460ff16801561224c57506004600360003373ffffffffffffffffffffffffffffffffffffffff1673ffffffffffffffffffffffffffffffffffffffff1681526020019081526020016000206040516121ef91906151b5565b908152602001604051809103902060003373ffffffffffffffffffffffffffffffffffffffff1673ffffffffffffffffffffffffffffffffffffffff16815260200190815260200160002060070160009054906101000a900460ff165b61228b576040517f08c379a00000000000000000000000000000000000000000000000000000000081526004016122829061556b565b60405180910390fd5b600560003373ffffffffffffffffffffffffffffffffffffffff1673ffffffffffffffffffffffffffffffffffffffff16815260200190815260200160002060009054906101000a900460ff16612317576040517f08c379a000000000000000000000000000000000000000000000000000000000815260040161230e9061550b565b60405180910390fd5b6000600360003373ffffffffffffffffffffffffffffffffffffffff1673ffffffffffffffffffffffffffffffffffffffff16815260200190815260200160002080546123639061585e565b80601f016020809104026020016040519081016040528092919081815260200182805461238f9061585e565b80156123dc5780601f106123b1576101008083540402835291602001916123dc565b820191906000526020600020905b8154815290600101906020018083116123bf57829003601f168201915b505050505090506000815111612427576040517f08c379a000000000000000000000000000000000000000000000000000000000815260040161241e9061548b565b60405180910390fd5b6000600482604051612439919061513f565b908152602001604051809103902060003373ffffffffffffffffffffffffffffffffffffffff1673ffffffffffffffffffffffffffffffffffffffff16815260200190815260200160002090508060040160009054906101000a900460ff166124d7576040517f08c379a00000000000000000000000000000000000000000000000000000000081526004016124ce9061558b565b60405180910390fd5b6000600760008154809291906124ec90615890565b9190505560405160200161250091906151cc565b604051602081830303815290604052805190602001209050604051806060016040528042815260200160008152602001620151804261253f9190615715565b81525060096000838152602001908152602001600020600082015181600001556020820151816001015560408201518160020155905050816008016000836003015481526020019081526020016000208190806001815401808255809150506001900390600052602060002001600090919091909150553373ffffffffffffffffffffffffffffffffffffffff167f34535ef4095d814f92e22561d8ed07a3f268088dca90eb68c1981f6af331533f60405160405180910390a2612638336040518060400160405280600b81526020017f537461727420427265616b000000000000000000000000000000000000000000815250613859565b505050565b600080825111612682576040517f08c379a00000000000000000000000000000000000000000000000000000000081526004016126799061534b565b60405180910390fd5b60005b600880549050811015612716578280519060200120600882815481106126d4577f4e487b7100000000000000000000000000000000000000000000000000000000600052603260045260246000fd5b906000526020600020016040516126eb919061510f565b6040518091039020141561270357600191505061271c565b808061270e90615890565b915050612685565b50600090505b919050565b600160003373ffffffffffffffffffffffffffffffffffffffff1673ffffffffffffffffffffffffffffffffffffffff16815260200190815260200160002060009054906101000a900460ff16806127c4575060008054906101000a900473ffffffffffffffffffffffffffffffffffffffff1673ffffffffffffffffffffffffffffffffffffffff163373ffffffffffffffffffffffffffffffffffffffff16145b612803576040517f08c379a00000000000000000000000000000000000000000000000000000000081526004016127fa9061542b565b60405180910390fd5b600073ffffffffffffffffffffffffffffffffffffffff168173ffffffffffffffffffffffffffffffffffffffff161415612873576040517f08c379a000000000000000000000000000000000000000000000000000000000815260040161286a906155ab565b60405180910390fd5b6000600360008373ffffffffffffffffffffffffffffffffffffffff1673ffffffffffffffffffffffffffffffffffffffff16815260200190815260200160002080546128bf9061585e565b80601f01602080910402602001604051908101604052809291908181526020018280546128eb9061585e565b80156129385780601f1061290d57610100808354040283529160200191612938565b820191906000526020600020905b81548152906001019060200180831161291b57829003601f168201915b505050505090506000815111612983576040517f08c379a000000000000000000000000000000000000000000000000000000000815260040161297a9061540b565b60405180910390fd5b6000600482604051612995919061513f565b908152602001604051809103902060008473ffffffffffffffffffffffffffffffffffffffff1673ffffffffffffffffffffffffffffffffffffffff16815260200190815260200160002060070160006101000a81548160ff0219169083151502179055508173ffffffffffffffffffffffffffffffffffffffff167f114d9e838c55f1dcadb7fa865c881750f43ba93a77b58fc41fb204421eae997b82604051612a409190615241565b60405180910390a25050565b606060006040518060600160405280602f8152602001615a51602f9139905060005b600680549050811015612e4457600060068281548110612ab7577f4e487b7100000000000000000000000000000000000000000000000000000000600052603260045260246000fd5b9060005260206000200160009054906101000a900473ffffffffffffffffffffffffffffffffffffffff1690506000600360008373ffffffffffffffffffffffffffffffffffffffff1673ffffffffffffffffffffffffffffffffffffffff1681526020019081526020016000208054612b309061585e565b80601f0160208091040260200160405190810160405280929190818152602001828054612b5c9061585e565b8015612ba95780601f10612b7e57610100808354040283529160200191612ba9565b820191906000526020600020905b815481529060010190602001808311612b8c57829003601f168201915b505050505090506000600482604051612bc2919061513f565b908152602001604051809103902060008473ffffffffffffffffffffffffffffffffffffffff1673ffffffffffffffffffffffffffffffffffffffff16815260200190815260200160002090508060070160009054906101000a900460ff1615612e2e57606060006002811115612c62577f4e487b7100000000000000000000000000000000000000000000000000000000600052602160045260246000fd5b8260040160029054906101000a900460ff166002811115612cac577f4e487b7100000000000000000000000000000000000000000000000000000000600052602160045260246000fd5b1415612cef576040518060400160405280600981526020017f46756c6c2054696d6500000000000000000000000000000000000000000000008152509050612df0565b60016002811115612d29577f4e487b7100000000000000000000000000000000000000000000000000000000600052602160045260246000fd5b8260040160029054906101000a900460ff166002811115612d73577f4e487b7100000000000000000000000000000000000000000000000000000000600052602160045260246000fd5b1415612db6576040518060400160405280600981526020017f506172742054696d6500000000000000000000000000000000000000000000008152509050612def565b6040518060400160405280600a81526020017f436f6e74726163746f720000000000000000000000000000000000000000000081525090505b5b85612dfa85613cde565b612e078460000154613d0f565b83604051602001612e1b9493929190615156565b6040516020818303038152906040529550505b5050508080612e3c90615890565b915050612a6e565b508091505090565b6000600260008373ffffffffffffffffffffffffffffffffffffffff1673ffffffffffffffffffffffffffffffffffffffff16815260200190815260200160002060009054906101000a900460ff169050919050565b600260003373ffffffffffffffffffffffffffffffffffffffff1673ffffffffffffffffffffffffffffffffffffffff16815260200190815260200160002060009054906101000a900460ff168015612fa157506004600360003373ffffffffffffffffffffffffffffffffffffffff1673ffffffffffffffffffffffffffffffffffffffff168152602001908152602001600020604051612f4491906151b5565b908152602001604051809103902060003373ffffffffffffffffffffffffffffffffffffffff1673ffffffffffffffffffffffffffffffffffffffff16815260200190815260200160002060070160009054906101000a900460ff165b612fe0576040517f08c379a0000000000000000000000000000000000000000000000000000000008152600401612fd79061556b565b60405180910390fd5b600560003373ffffffffffffffffffffffffffffffffffffffff1673ffffffffffffffffffffffffffffffffffffffff16815260200190815260200160002060009054906101000a900460ff1661306c576040517f08c379a00000000000000000000000000000000000000000000000000000000081526004016130639061550b565b60405180910390fd5b6000600360003373ffffffffffffffffffffffffffffffffffffffff1673ffffffffffffffffffffffffffffffffffffffff16815260200190815260200160002080546130b89061585e565b80601f01602080910402602001604051908101604052809291908181526020018280546130e49061585e565b80156131315780601f1061310657610100808354040283529160200191613131565b820191906000526020600020905b81548152906001019060200180831161311457829003601f168201915b50505050509050600081511161317c576040517f08c379a00000000000000000000000000000000000000000000000000000000081526004016131739061548b565b60405180910390fd5b600060048260405161318e919061513f565b908152602001604051809103902060003373ffffffffffffffffffffffffffffffffffffffff1673ffffffffffffffffffffffffffffffffffffffff16815260200190815260200160002090508060040160009054906101000a900460ff161561322d576040517f08c379a00000000000000000000000000000000000000000000000000000000081526004016132249061530b565b60405180910390fd5b60018160040160006101000a81548160ff0219169083151502179055504281600301819055503373ffffffffffffffffffffffffffffffffffffffff167f26447b0ce37ef140deb3a0d4c84d56f946ff4056847a73e62f5d671fe2eb78c460405160405180910390a26132d5336040518060400160405280600881526020017f436c6f636b20496e000000000000000000000000000000000000000000000000815250613859565b5050565b600260003373ffffffffffffffffffffffffffffffffffffffff1673ffffffffffffffffffffffffffffffffffffffff16815260200190815260200160002060009054906101000a900460ff1680156133d857506004600360003373ffffffffffffffffffffffffffffffffffffffff1673ffffffffffffffffffffffffffffffffffffffff16815260200190815260200160002060405161337b91906151b5565b908152602001604051809103902060003373ffffffffffffffffffffffffffffffffffffffff1673ffffffffffffffffffffffffffffffffffffffff16815260200190815260200160002060070160009054906101000a900460ff165b613417576040517f08c379a000000000000000000000000000000000000000000000000000000000815260040161340e9061556b565b60405180910390fd5b600560003373ffffffffffffffffffffffffffffffffffffffff1673ffffffffffffffffffffffffffffffffffffffff16815260200190815260200160002060009054906101000a900460ff166134a3576040517f08c379a000000000000000000000000000000000000000000000000000000000815260040161349a9061550b565b60405180910390fd5b6000600360003373ffffffffffffffffffffffffffffffffffffffff1673ffffffffffffffffffffffffffffffffffffffff16815260200190815260200160002080546134ef9061585e565b80601f016020809104026020016040519081016040528092919081815260200182805461351b9061585e565b80156135685780601f1061353d57610100808354040283529160200191613568565b820191906000526020600020905b81548152906001019060200180831161354b57829003601f168201915b5050505050905060008151116135b3576040517f08c379a00000000000000000000000000000000000000000000000000000000081526004016135aa9061548b565b60405180910390fd5b60006004826040516135c5919061513f565b908152602001604051809103902060003373ffffffffffffffffffffffffffffffffffffffff1673ffffffffffffffffffffffffffffffffffffffff16815260200190815260200160002090506000816008016000836003015481526020019081526020016000208054905011613671576040517f08c379a00000000000000000000000000000000000000000000000000000000081526004016136689061532b565b60405180910390fd5b600081600801600083600301548152602001908152602001600020600183600801600085600301548152602001908152602001600020805490506136b591906157a0565b815481106136ec577f4e487b7100000000000000000000000000000000000000000000000000000000600052603260045260246000fd5b9060005260206000200154905060006009600083815260200190815260200160002090506000816001015414613757576040517f08c379a000000000000000000000000000000000000000000000000000000000815260040161374e906152cb565b60405180910390fd5b4281600101819055503373ffffffffffffffffffffffffffffffffffffffff167f9723f0b57321639182180babf24ae91c888fe0ae2c635fa6b56ef82be5b3fb8560405160405180910390a26137e2336040518060400160405280600981526020017f456e6420427265616b0000000000000000000000000000000000000000000000815250613859565b50505050565b60008073ffffffffffffffffffffffffffffffffffffffff168273ffffffffffffffffffffffffffffffffffffffff161415801561385257503073ffffffffffffffffffffffffffffffffffffffff168273ffffffffffffffffffffffffffffffffffffffff1614155b9050919050565b600073ffffffffffffffffffffffffffffffffffffffff168273ffffffffffffffffffffffffffffffffffffffff1614156138c9576040517f08c379a00000000000000000000000000000000000000000000000000000000081526004016138c0906155ab565b60405180910390fd5b600081511161390d576040517f08c379a00000000000000000000000000000000000000000000000000000000081526004016139049061536b565b60405180910390fd5b6000600360008473ffffffffffffffffffffffffffffffffffffffff1673ffffffffffffffffffffffffffffffffffffffff16815260200190815260200160002080546139599061585e565b80601f01602080910402602001604051908101604052809291908181526020018280546139859061585e565b80156139d25780601f106139a7576101008083540402835291602001916139d2565b820191906000526020600020905b8154815290600101906020018083116139b557829003601f168201915b505050505090506000815111613a1d576040517f08c379a0000000000000000000000000000000000000000000000000000000008152600401613a149061540b565b60405180910390fd5b6000600482604051613a2f919061513f565b908152602001604051809103902060008573ffffffffffffffffffffffffffffffffffffffff1673ffffffffffffffffffffffffffffffffffffffff1681526020019081526020016000206005018054613a889061585e565b80601f0160208091040260200160405190810160405280929190818152602001828054613ab49061585e565b8015613b015780601f10613ad657610100808354040283529160200191613b01565b820191906000526020600020905b815481529060010190602001808311613ae457829003601f168201915b505050505090506000815111613b4c576040517f08c379a0000000000000000000000000000000000000000000000000000000008152600401613b439061544b565b60405180910390fd5b60006201518042613b5d9190615715565b9050600a6040518060c001604052808773ffffffffffffffffffffffffffffffffffffffff16815260200186815260200142815260200183815260200185815260200184815250908060018154018082558091505060019003906000526020600020906006020160009091909190915060008201518160000160006101000a81548173ffffffffffffffffffffffffffffffffffffffff021916908373ffffffffffffffffffffffffffffffffffffffff1602179055506020820151816001019080519060200190613c309291906142e3565b5060408201518160020155606082015181600301556080820151816004019080519060200190613c619291906142e3565b5060a0820151816005019080519060200190613c7e9291906142e3565b5050508473ffffffffffffffffffffffffffffffffffffffff167f084587ac02b26e363cd7eb8cad960f831936db6c72e075b0e8a4ef8d3717f7288542848787604051613ccf959493929190615263565b60405180910390a25050505050565b6060613d0882604051602001613cf491906150f4565b604051602081830303815290604052613d40565b9050919050565b6060613d3982604051602001613d2591906151cc565b604051602081830303815290604052613d40565b9050919050565b606060006040518060400160405280601081526020017f30313233343536373839616263646566000000000000000000000000000000008152509050600060028451613d8c9190615746565b6002613d9891906156bf565b67ffffffffffffffff811115613dd7577f4e487b7100000000000000000000000000000000000000000000000000000000600052604160045260246000fd5b6040519080825280601f01601f191660200182016040528015613e095781602001600182028036833780820191505090505b5090507f300000000000000000000000000000000000000000000000000000000000000081600081518110613e67577f4e487b7100000000000000000000000000000000000000000000000000000000600052603260045260246000fd5b60200101907effffffffffffffffffffffffffffffffffffffffffffffffffffffffffffff1916908160001a9053507f780000000000000000000000000000000000000000000000000000000000000081600181518110613ef1577f4e487b7100000000000000000000000000000000000000000000000000000000600052603260045260246000fd5b60200101907effffffffffffffffffffffffffffffffffffffffffffffffffffffffffffff1916908160001a90535060005b845181101561418557826004868381518110613f68577f4e487b7100000000000000000000000000000000000000000000000000000000600052603260045260246000fd5b602001015160f81c60f81b7effffffffffffffffffffffffffffffffffffffffffffffffffffffffffffff1916901c60f81c60ff1681518110613fd4577f4e487b7100000000000000000000000000000000000000000000000000000000600052603260045260246000fd5b602001015160f81c60f81b82600283613fed9190615746565b6002613ff991906156bf565b81518110614030577f4e487b7100000000000000000000000000000000000000000000000000000000600052603260045260246000fd5b60200101907effffffffffffffffffffffffffffffffffffffffffffffffffffffffffffff1916908160001a90535082600f60f81b86838151811061409e577f4e487b7100000000000000000000000000000000000000000000000000000000600052603260045260246000fd5b602001015160f81c60f81b1660f81c60ff16815181106140e7577f4e487b7100000000000000000000000000000000000000000000000000000000600052603260045260246000fd5b602001015160f81c60f81b826002836141009190615746565b600361410c91906156bf565b81518110614143577f4e487b7100000000000000000000000000000000000000000000000000000000600052603260045260246000fd5b60200101907effffffffffffffffffffffffffffffffffffffffffffffffffffffffffffff1916908160001a905350808061417d90615890565b915050613f23565b508092505050919050565b82805461419c9061585e565b90600052602060002090601f0160209004810192826141be5760008555614205565b82601f106141d757803560ff1916838001178555614205565b82800160010185558215614205579182015b828111156142045782358255916020019190600101906141e9565b5b5090506142129190614369565b5090565b8280546142229061585e565b90600052602060002090601f0160209004810192826142445760008555614292565b82601f106142555780548555614292565b8280016001018555821561429257600052602060002091601f016020900482015b82811115614291578254825591600101919060010190614276565b5b50905061429f9190614369565b5090565b5080546142af9061585e565b6000825580601f106142c157506142e0565b601f0160209004906000526020600020908101906142df9190614369565b5b50565b8280546142ef9061585e565b90600052602060002090601f0160209004810192826143115760008555614358565b82601f1061432a57805160ff1916838001178555614358565b82800160010185558215614358579182015b8281111561435757825182559160200191906001019061433c565b5b5090506143659190614369565b5090565b5b8082111561438257600081600090555060010161436a565b5090565b600061439961439484615633565b615602565b9050828152602081018484840111156143b157600080fd5b6143bc84828561581c565b509392505050565b6000813590506143d381615a12565b92915050565b6000813590506143e881615a29565b92915050565b60008083601f84011261440057600080fd5b8235905067ffffffffffffffff81111561441957600080fd5b60208301915083600182028301111561443157600080fd5b9250929050565b600082601f83011261444957600080fd5b8135614459848260208601614386565b91505092915050565b60008135905061447181615a39565b92915050565b60006020828403121561448957600080fd5b6000614497848285016143c4565b91505092915050565b600080600080600080600060a0888a0312156144bb57600080fd5b60006144c98a828b016143c4565b975050602088013567ffffffffffffffff8111156144e657600080fd5b6144f28a828b016143ee565b965096505060406145058a828b016143d9565b945050606088013567ffffffffffffffff81111561452257600080fd5b61452e8a828b016143ee565b935093505060806145418a828b01614462565b91505092959891949750929550565b6000806020838503121561456357600080fd5b600083013567ffffffffffffffff81111561457d57600080fd5b614589858286016143ee565b92509250509250929050565b6000602082840312156145a757600080fd5b600082013567ffffffffffffffff8111156145c157600080fd5b6145cd84828501614438565b91505092915050565b6000602082840312156145e857600080fd5b60006145f684828501614462565b91505092915050565b614608816157d4565b82525050565b61461f61461a826157d4565b6158d9565b82525050565b61462e816157e6565b82525050565b600081546146418161585e565b61464b8186615698565b945060018216600081146146665760018114614677576146aa565b60ff198316865281860193506146aa565b61468085615663565b60005b838110156146a257815481890152600182019150602081019050614683565b838801955050505b50505092915050565b60006146bf83856156a3565b93506146cc83858461581c565b6146d5836159f4565b840190509392505050565b60006146ec83856156b4565b93506146f983858461581c565b82840190509392505050565b60006147108261568d565b61471a81856156a3565b935061472a81856020860161582b565b614733816159f4565b840191505092915050565b60006147498261568d565b61475381856156b4565b935061476381856020860161582b565b80840191505092915050565b6000815461477c8161585e565b61478681866156b4565b945060018216600081146147a157600181146147b2576147e5565b60ff198316865281860193506147e5565b6147bb85615678565b60005b838110156147dd578154818901526001820191506020810190506147be565b838801955050505b50505092915050565b60006147fb6001836156b4565b91507f0a000000000000000000000000000000000000000000000000000000000000006000830152600182019050919050565b600061483b6013836156a3565b91507f427265616b20616c726561647920656e646564000000000000000000000000006000830152602082019050919050565b600061487b601f836156a3565b91507f4572726f723a20496e76616c696420457468657265756d2061646472657373006000830152602082019050919050565b60006148bb6022836156a3565b91507f4572726f723a20456d706c6f79656520616c726561647920636c6f636b65642060008301527f696e0000000000000000000000000000000000000000000000000000000000006020830152604082019050919050565b6000614921600f836156a3565b91507f4e6f20627265616b20746f20656e6400000000000000000000000000000000006000830152602082019050919050565b60006149616024836156a3565b91507f4572726f723a204c6f636174696f6e206e616d652063616e6e6f74206265206560008301527f6d707479000000000000000000000000000000000000000000000000000000006020830152604082019050919050565b60006149c7601d836156a3565b91507f4572726f723a20416374696f6e2063616e6e6f7420626520656d7074790000006000830152602082019050919050565b6000614a076032836156a3565b91507f4572726f723a20456d706c6f796565206d75737420656e6420627265616b206260008301527f65666f726520636c6f636b696e67206f757400000000000000000000000000006020830152604082019050919050565b6000614a6d602f836156a3565b91507f4572726f723a20456d706c6f79656520616c726561647920657869737473206960008301527f6e2074686973206c6f636174696f6e00000000000000000000000000000000006020830152604082019050919050565b6000614ad3601b836156a3565b91507f4572726f723a2053757065727669736f72206e6f7420666f756e6400000000006000830152602082019050919050565b6000614b13601e836156a3565b91507f4572726f723a204c6f636174696f6e20646f6573206e6f7420657869737400006000830152602082019050919050565b6000614b536030836156a3565b91507f4572726f723a20456d706c6f796565206e6f74206173736f636961746564207760008301527f69746820616e79206c6f636174696f6e000000000000000000000000000000006020830152604082019050919050565b6000614bb96046836156a3565b91507f4572726f723a204f6e6c792073757065727669736f727320616e64207468652060008301527f636f6e7472616374206f776e65722063616e20706572666f726d20746869732060208301527f616374696f6e00000000000000000000000000000000000000000000000000006040830152606082019050919050565b6000614c456027836156a3565b91507f4572726f723a205461736b206465736372697074696f6e2063616e6e6f74206260008301527f6520656d707479000000000000000000000000000000000000000000000000006020830152604082019050919050565b6000614cab602c836156a3565b91507f4572726f723a20526571756972656420776f726b20686f7572732063616e277460008301527f206265206e6567617469766500000000000000000000000000000000000000006020830152604082019050919050565b6000614d116029836156a3565b91507f456d706c6f796565206e6f74206173736f636961746564207769746820616e7960008301527f206c6f636174696f6e00000000000000000000000000000000000000000000006020830152604082019050919050565b6000614d77601e836156a3565b91507f4572726f723a204c6f636174696f6e20616c72656164792065786973747300006000830152602082019050919050565b6000614db76036836156a3565b91507f4572726f723a204f6e6c792074686520636f6e7472616374206f776e6572206360008301527f616e20706572666f726d207468697320616374696f6e000000000000000000006020830152604082019050919050565b6000614e1d6003836156b4565b91507f202d2000000000000000000000000000000000000000000000000000000000006000830152600382019050919050565b6000614e5d602f836156a3565b91507f4572726f723a20456d706c6f796565206d75737420626520636c6f636b65642060008301527f696e20746f20636c6f636b206f757400000000000000000000000000000000006020830152604082019050919050565b6000614ec36021836156a3565b91507f4572726f723a20456d706c6f796565206e6f742061757468656e74696361746560008301527f64000000000000000000000000000000000000000000000000000000000000006020830152604082019050919050565b6000614f296021836156a3565b91507f4572726f723a20496e76616c69642073757065727669736f722061646472657360008301527f73000000000000000000000000000000000000000000000000000000000000006020830152604082019050919050565b6000614f8f6020836156a3565b91507f4572726f723a2053757065727669736f7220616c7265616479206578697374736000830152602082019050919050565b6000614fcf6027836156a3565b91507f4572726f723a204e6f742061207265676973746572656420616374697665206560008301527f6d706c6f796565000000000000000000000000000000000000000000000000006020830152604082019050919050565b60006150356033836156a3565b91507f4572726f723a20456d706c6f796565206d75737420626520636c6f636b65642060008301527f696e20746f207374617274206120627265616b000000000000000000000000006020830152604082019050919050565b600061509b601f836156a3565b91507f4572726f723a20496e76616c696420656d706c6f7965652061646472657373006000830152602082019050919050565b6150d781615812565b82525050565b6150ee6150e982615812565b6158fd565b82525050565b6000615100828461460e565b60148201915081905092915050565b600061511b8284614634565b915081905092915050565b60006151338284866146e0565b91508190509392505050565b600061514b828461473e565b915081905092915050565b6000615162828761473e565b915061516d826147ee565b9150615179828661473e565b915061518482614e10565b9150615190828561473e565b915061519b82614e10565b91506151a7828461473e565b915081905095945050505050565b60006151c1828461476f565b915081905092915050565b60006151d882846150dd565b60208201915081905092915050565b60006020820190506151fc60008301846145ff565b92915050565b60006020820190506152176000830184614625565b92915050565b600060208201905081810360008301526152388184866146b3565b90509392505050565b6000602082019050818103600083015261525b8184614705565b905092915050565b600060a082019050818103600083015261527d8188614705565b905061528c60208301876150ce565b61529960408301866150ce565b81810360608301526152ab8185614705565b905081810360808301526152bf8184614705565b90509695505050505050565b600060208201905081810360008301526152e48161482e565b9050919050565b600060208201905081810360008301526153048161486e565b9050919050565b60006020820190508181036000830152615324816148ae565b9050919050565b6000602082019050818103600083015261534481614914565b9050919050565b6000602082019050818103600083015261536481614954565b9050919050565b60006020820190508181036000830152615384816149ba565b9050919050565b600060208201905081810360008301526153a4816149fa565b9050919050565b600060208201905081810360008301526153c481614a60565b9050919050565b600060208201905081810360008301526153e481614ac6565b9050919050565b6000602082019050818103600083015261540481614b06565b9050919050565b6000602082019050818103600083015261542481614b46565b9050919050565b6000602082019050818103600083015261544481614bac565b9050919050565b6000602082019050818103600083015261546481614c38565b9050919050565b6000602082019050818103600083015261548481614c9e565b9050919050565b600060208201905081810360008301526154a481614d04565b9050919050565b600060208201905081810360008301526154c481614d6a565b9050919050565b600060208201905081810360008301526154e481614daa565b9050919050565b6000602082019050818103600083015261550481614e50565b9050919050565b6000602082019050818103600083015261552481614eb6565b9050919050565b6000602082019050818103600083015261554481614f1c565b9050919050565b6000602082019050818103600083015261556481614f82565b9050919050565b6000602082019050818103600083015261558481614fc2565b9050919050565b600060208201905081810360008301526155a481615028565b9050919050565b600060208201905081810360008301526155c48161508e565b9050919050565b60006060820190506155e060008301866150ce565b6155ed60208301856150ce565b6155fa60408301846150ce565b949350505050565b6000604051905081810181811067ffffffffffffffff82111715615629576156286159c5565b5b8060405250919050565b600067ffffffffffffffff82111561564e5761564d6159c5565b5b601f19601f8301169050602081019050919050565b60008190508160005260206000209050919050565b60008190508160005260206000209050919050565b600081519050919050565b600081905092915050565b600082825260208201905092915050565b600081905092915050565b60006156ca82615812565b91506156d583615812565b9250827fffffffffffffffffffffffffffffffffffffffffffffffffffffffffffffffff0382111561570a57615709615938565b5b828201905092915050565b600061572082615812565b915061572b83615812565b92508261573b5761573a615967565b5b828204905092915050565b600061575182615812565b915061575c83615812565b9250817fffffffffffffffffffffffffffffffffffffffffffffffffffffffffffffffff048311821515161561579557615794615938565b5b828202905092915050565b60006157ab82615812565b91506157b683615812565b9250828210156157c9576157c8615938565b5b828203905092915050565b60006157df826157f2565b9050919050565b60008115159050919050565b600073ffffffffffffffffffffffffffffffffffffffff82169050919050565b6000819050919050565b82818337600083830152505050565b60005b8381101561584957808201518184015260208101905061582e565b83811115615858576000848401525b50505050565b6000600282049050600182168061587657607f821691505b6020821081141561588a57615889615996565b5b50919050565b600061589b82615812565b91507fffffffffffffffffffffffffffffffffffffffffffffffffffffffffffffffff8214156158ce576158cd615938565b5b600182019050919050565b60006158e4826158eb565b9050919050565b60006158f682615a05565b9050919050565b6000819050919050565b600061591282615812565b915061591d83615812565b92508261592d5761592c615967565b5b828206905092915050565b7f4e487b7100000000000000000000000000000000000000000000000000000000600052601160045260246000fd5b7f4e487b7100000000000000000000000000000000000000000000000000000000600052601260045260246000fd5b7f4e487b7100000000000000000000000000000000000000000000000000000000600052602260045260246000fd5b7f4e487b7100000000000000000000000000000000000000000000000000000000600052604160045260246000fd5b6000601f19601f8301169050919050565b60008160601b9050919050565b615a1b816157d4565b8114615a2657600080fd5b50565b60038110615a3657600080fd5b50565b615a4281615812565b8114615a4d57600080fd5b5056fe456d706c6f7965652041646472657373202d20546f74616c20486f757273202d20456d706c6f79656520547970650aa2646970667358221220b0de52ce8bf14c15af2ceace04bd9529d5f490f64357688a59329f09076a902764736f6c63430008000033",
  "immutableReferences": {},
  "source": "//SPDX-License-Identifier: MIT\npragma solidity ^0.8.0;\n\ncontract TimeTracking {\n    address public owner;\n    mapping(address => bool) private supervisors;\n    mapping(address => bool) private employees;\n    mapping(address => string) private employeeLocations;\n    mapping(string => mapping(address => Employee)) private locationEmployees;\n    mapping(address => bool) private authenticatedEmployees;\n\n \n    address[] public employeeAddresses;\n\n    enum EmployeeType { FullTime, PartTime, Contractor }\n\n    struct Break {\n        uint startTime;\n        uint endTime;\n        uint day;\n    }\n uint private breakCounter;\n    struct Employee {\n    uint totalHours;\n    uint totalMinutes;  \n        uint totalSeconds;  \n    uint clockInTime;\n    bool isClockedIn;\n    bool isOnBreak;\n    EmployeeType employeeType;\n    string task;\n    uint requiredWorkHours;\n    bool isActive;\n    mapping(uint => bytes32[]) workPeriodBreaks;  // New field to replace 'breaks'\n    uint overtime;\n}\n\n\n    struct AuditLog {\n        address employee;\n        string action;\n        uint timestamp;\n        uint day;\n        string locationName;\n        string taskDescription;\n    }\n\n    string[] private locations;\n    mapping(bytes32 => Break) private breaks;  // Mapping to store Break structs\n    AuditLog[] private auditLogs;\n\n\n    event SupervisorAdded(address indexed supervisor);\n    event SupervisorRemoved(address indexed supervisor);\n    event LocationAdded(string locationName);\n    event LocationRemoved(string _locationName);\n\n    event EmployeeAddedToLocation(address indexed employee, string locationName);\n    event EmployeeRemovedFromLocation(address indexed employee, string locationName);\n    event EmployeeClockedIn(address indexed employee);\n    event EmployeeClockedOut(address indexed employee);\n    event BreakStarted(address indexed employee);\n    event BreakInformationLogged(address indexed employee, uint day, uint breakCount, uint breakHours, uint breakMinutes, uint breakSeconds);\n\n    event BreakEnded(address indexed employee);\n    event EmployeeAuthenticated(address indexed employee);\n    event AuthenticationRevoked(address indexed employee);\n   event AuditLogCreated(address indexed employee, string action, uint timestamp, uint day, string locationName, string taskDescription);\n\n\n    modifier onlyOwner() {\n        require(msg.sender == owner, \"Error: Only the contract owner can perform this action\");\n        _;\n    }\n\n    modifier onlySupervisorOrOwner() {\n        require(supervisors[msg.sender] || msg.sender == owner, \"Error: Only supervisors and the contract owner can perform this action\");\n        _;\n    }\n\n    modifier onlyActiveEmployee() {\n        require(employees[msg.sender] && locationEmployees[employeeLocations[msg.sender]][msg.sender].isActive, \"Error: Not a registered active employee\");\n        _;\n    }\n\n    constructor() {\n        owner = msg.sender;\n        supervisors[msg.sender] = true;\n    }\n function isValidEthereumAddress(address _address) internal view returns (bool) {\n    return (_address != address(0) && _address != address(this));\n}\nfunction getAllEmployees() public view returns (string memory) {\n    string memory result = \"Employee Address - Total Hours - Employee Type\\n\";\n    for (uint i = 0; i < employeeAddresses.length; i++) {\n        address employeeAddress = employeeAddresses[i];\n        string memory locationName = employeeLocations[employeeAddress];\n        Employee storage employee = locationEmployees[locationName][employeeAddress];  // Use 'storage' instead of 'memory'\n        if (employee.isActive) {\n            string memory employeeType;\n            if (employee.employeeType == EmployeeType.FullTime) {\n                employeeType = \"Full Time\";\n            } else if (employee.employeeType == EmployeeType.PartTime) {\n                employeeType = \"Part Time\";\n            } else {\n                employeeType = \"Contractor\";\n            }\n            result = string(abi.encodePacked(result, \"\\n\", toString(employeeAddress), \" - \", toString(employee.totalHours), \" - \", employeeType));\n        }\n    }\n    return result;\n}\n\nfunction addLocation(string calldata _locationName) external onlySupervisorOrOwner {\n    require(bytes(_locationName).length > 0, \"Error: Location name cannot be empty\");\n    require(!locationExists(_locationName), \"Error: Location already exists\");\n\n    locations.push(_locationName);\n    emit LocationAdded(_locationName);\n}\nfunction removeLocation(string calldata _locationName) external onlySupervisorOrOwner {\n    require(bytes(_locationName).length > 0, \"Error: Location name cannot be empty\");\n    require(locationExists(_locationName), \"Error: Location does not exist\");\n\n    for (uint i = 0; i < locations.length; i++) {\n        if (keccak256(abi.encodePacked(locations[i])) == keccak256(abi.encodePacked(_locationName))) {\n            locations[i] = locations[locations.length - 1];\n            locations.pop();\n            emit LocationRemoved(_locationName);\n            return;\n        }\n    }\n}\nfunction addEmployeeToLocation(address _employee, string calldata _locationName, EmployeeType _employeeType, string calldata _task, uint _requiredWorkHours) external onlySupervisorOrOwner {\n    require(_employee != address(0), \"Error: Invalid employee address\");\n    require(isValidEthereumAddress(_employee), \"Error: Invalid Ethereum address\");\n    require(_requiredWorkHours >= 0, \"Error: Required work hours can't be negative\");\n    require(bytes(_task).length > 0, \"Error: Task description cannot be empty\");\n    require(locationExists(_locationName), \"Error: Location does not exist\");\n    require(!locationEmployees[_locationName][_employee].isActive, \"Error: Employee already exists in this location\");\n\n    Employee storage newEmployee = locationEmployees[_locationName][_employee];\n    newEmployee.totalHours = 0;\n    newEmployee.clockInTime = 0;\n    newEmployee.isOnBreak = false;\n    newEmployee.isClockedIn = false;\n    newEmployee.employeeType = _employeeType;\n    newEmployee.task = _task;\n    newEmployee.requiredWorkHours = _requiredWorkHours;\n    newEmployee.isActive = true;\n    newEmployee.overtime = 0;\n\n    employeeLocations[_employee] = _locationName;\n    employees[_employee] = true;\n\n    // Add the employee address to the array\n    employeeAddresses.push(_employee);\n\n    emit EmployeeAddedToLocation(_employee, _locationName);\n}\n    function addSupervisor(address _supervisor) external onlyOwner {\n    require(_supervisor != address(0), \"Error: Invalid supervisor address\");\n    require(isValidEthereumAddress(_supervisor), \"Error: Invalid Ethereum address\");\n    require(!supervisors[_supervisor], \"Error: Supervisor already exists\");\n    supervisors[_supervisor] = true;\n    emit SupervisorAdded(_supervisor);\n}\n\nfunction removeSupervisor(address _supervisor) external onlyOwner {\n    require(_supervisor != address(0), \"Error: Invalid supervisor address\");\n    require(isValidEthereumAddress(_supervisor), \"Error: Invalid Ethereum address\");\n    require(supervisors[_supervisor], \"Error: Supervisor not found\");\n    supervisors[_supervisor] = false;\n    emit SupervisorRemoved(_supervisor);\n}\n\n\nfunction authenticateEmployee(address _employee) external onlyOwner {\n    require(_employee != address(0), \"Error: Invalid employee address\");\n    require(isValidEthereumAddress(_employee), \"Error: Invalid Ethereum address\");\n\n    authenticatedEmployees[_employee] = true;\n    emit EmployeeAuthenticated(_employee);\n}\n\nfunction removeEmployeeFromLocation(address _employee) external onlySupervisorOrOwner {\n    require(_employee != address(0), \"Error: Invalid employee address\");\n\n    string memory locationName = employeeLocations[_employee];\n    require(bytes(locationName).length > 0, \"Error: Employee not associated with any location\");\n\n    locationEmployees[locationName][_employee].isActive = false;\n\n    emit EmployeeRemovedFromLocation(_employee, locationName);\n}\n\nfunction revokeAuthentication(address _employee) external onlyOwner {\n    require(_employee != address(0), \"Error: Invalid employee address\");\n    require(authenticatedEmployees[_employee], \"Error: Employee not authenticated\");\n    authenticatedEmployees[_employee] = false;\n    emit AuthenticationRevoked(_employee);\n}\n\nfunction clockIn() external onlyActiveEmployee {\n    require(authenticatedEmployees[msg.sender], \"Error: Employee not authenticated\");\n    string memory locationName = employeeLocations[msg.sender];\n    require(bytes(locationName).length > 0, \"Employee not associated with any location\");\n\n    Employee storage employee = locationEmployees[locationName][msg.sender];\n    require(!employee.isClockedIn, \"Error: Employee already clocked in\");\n\n    employee.isClockedIn = true;\n    employee.clockInTime = block.timestamp;\n    emit EmployeeClockedIn(msg.sender);\n    emitAuditLog(msg.sender, \"Clock In\");\n}\n\nfunction clockOut() external onlyActiveEmployee {\n    require(authenticatedEmployees[msg.sender], \"Error: Employee not authenticated\");\n    string memory locationName = employeeLocations[msg.sender];\n    require(bytes(locationName).length > 0, \"Employee not associated with any location\");\n\n    Employee storage employee = locationEmployees[locationName][msg.sender];\n    require(employee.isClockedIn, \"Error: Employee must be clocked in to clock out\");\n\n    // Check if the employee is on a break\n    if(employee.isOnBreak) {\n        revert(\"Error: Employee must end break before clocking out\");\n    }\n\n    uint totalWorkTime = block.timestamp - employee.clockInTime;\n    uint totalBreakTime = 0;\n\n    // Calculate total break time for the current work period\n    bytes32[] storage workPeriodBreaks = employee.workPeriodBreaks[employee.clockInTime];\n    for (uint i = 0; i < workPeriodBreaks.length; i++) {\n        Break storage breakObject = breaks[workPeriodBreaks[i]];\n        totalBreakTime += breakObject.endTime - breakObject.startTime;\n    }\n\n    uint workSeconds = totalWorkTime - totalBreakTime;\n    uint workHours = workSeconds / 3600;\n    uint workMinutes = (workSeconds % 3600) / 60;\n    workSeconds = workSeconds % 60;\n    if (workHours > employee.requiredWorkHours) {\n        employee.overtime += workHours - employee.requiredWorkHours;\n        workHours = employee.requiredWorkHours;\n    }\n    employee.totalHours += workHours;\n    employee.totalMinutes += workMinutes;\n    employee.totalSeconds += workSeconds;\n    employee.isClockedIn = false;\n    emit EmployeeClockedOut(msg.sender);\n    emitAuditLog(msg.sender, \"Clock Out\");\n}\n\n\n    function startBreak() external onlyActiveEmployee {\n    require(authenticatedEmployees[msg.sender], \"Error: Employee not authenticated\");\n    string memory locationName = employeeLocations[msg.sender];\n    require(bytes(locationName).length > 0, \"Employee not associated with any location\");\n\n    Employee storage employee = locationEmployees[locationName][msg.sender];\n    require(employee.isClockedIn, \"Error: Employee must be clocked in to start a break\");\n\n    bytes32 breakId = keccak256(abi.encodePacked(breakCounter++));\n    breaks[breakId] = Break(block.timestamp, 0, block.timestamp / 1 days);\n    employee.workPeriodBreaks[employee.clockInTime].push(breakId);\n\n    emit BreakStarted(msg.sender);\n    emitAuditLog(msg.sender, \"Start Break\");    \n}\n\nfunction endBreak() external onlyActiveEmployee {\n    require(authenticatedEmployees[msg.sender], \"Error: Employee not authenticated\");\n    string memory locationName = employeeLocations[msg.sender];\n    require(bytes(locationName).length > 0, \"Employee not associated with any location\");\n\n    Employee storage employee = locationEmployees[locationName][msg.sender];\n    require(employee.workPeriodBreaks[employee.clockInTime].length > 0, \"No break to end\");\n\n    bytes32 breakId = employee.workPeriodBreaks[employee.clockInTime][employee.workPeriodBreaks[employee.clockInTime].length - 1];\n    Break storage breakObject = breaks[breakId];\n    require(breakObject.endTime == 0, \"Break already ended\");\n\n    breakObject.endTime = block.timestamp;\n    emit BreakEnded(msg.sender);\n    emitAuditLog(msg.sender, \"End Break\");    \n}\n\n function getEmployeeTotalTime(address _employee) external view returns (uint, uint, uint) {\n    string memory locationName = employeeLocations[_employee];\n    require(bytes(locationName).length > 0, \"Error: Employee not associated with any location\");\n\n    Employee storage employee = locationEmployees[locationName][_employee];\n    return (employee.totalHours, employee.totalMinutes, employee.totalSeconds);\n}\n\n   \nfunction isOwner(address _address) public view returns (bool) {\n    return _address == owner;\n}\n\nfunction isSupervisor(address _address) public view returns (bool) {\n    return supervisors[_address];\n}\n\nfunction isEmployee(address _address) public view returns (bool) {\n    return employees[_address];\n}\n\n\n\n\n\n\nfunction locationExists(string memory _locationName) public view returns (bool) {\n    require(bytes(_locationName).length > 0, \"Error: Location name cannot be empty\");\n\n    for (uint i = 0; i < locations.length; i++) {\n        if (keccak256(bytes(locations[i])) == keccak256(bytes(_locationName))) {\n            return true;\n        }\n    }\n    return false;\n}\n\n   function emitAuditLog(address _employee, string memory _action) private {\n    require(_employee != address(0), \"Error: Invalid employee address\");\n    require(bytes(_action).length > 0, \"Error: Action cannot be empty\");\n\n    string memory locationName = employeeLocations[_employee];\n    require(bytes(locationName).length > 0, \"Error: Employee not associated with any location\");\n\n    string memory taskDescription = locationEmployees[locationName][_employee].task;\n    require(bytes(taskDescription).length > 0, \"Error: Task description cannot be empty\");\n\n    uint day = block.timestamp / 1 days;\n\n    auditLogs.push(AuditLog(_employee, _action, block.timestamp, day, locationName, taskDescription));\n    emit AuditLogCreated(_employee, _action, block.timestamp, day, locationName, taskDescription);\n}\n\n    function toString(address account) internal pure returns(string memory) {\n        return toString(abi.encodePacked(account));\n    }\n\n    function toString(uint256 value) internal pure returns(string memory) {\n        return toString(abi.encodePacked(value));\n    }\n\n    function toString(bytes memory data) internal pure returns(string memory) {\n        bytes memory alphabet = \"0123456789abcdef\";\n\n        bytes memory str = new bytes(2 + data.length * 2);\n        str[0] = \"0\";\n        str[1] = \"x\";\n        for (uint i = 0; i < data.length; i++) {\n            str[2+i*2] = alphabet[uint(uint8(data[i] >> 4))];\n            str[3+i*2] = alphabet[uint(uint8(data[i] & 0x0f))];\n        }\n        return string(str);\n    }\n\n\n\n\n\n\n\n    \n\n}",
  "sourcePath": "/Users/user/Desktop/Project6/Backend/contracts/Timetracking.sol",
  "compiler": {
    "name": "solc",
    "version": "0.8.0+commit.c7dfd78e.Emscripten.clang"
  },
  "schemaVersion": "3.4.16",
  "updatedAt": "2024-04-02T05:46:49.047Z",
  "devdoc": {
    "kind": "dev",
    "methods": {},
    "version": 1
  },
  "userdoc": {
    "kind": "user",
    "methods": {},
    "version": 1
  }
}