{
  "contractName": "TimeTracking",
  "abi": [
    {
      "inputs": [],
      "stateMutability": "nonpayable",
      "type": "constructor"
    },
    {
      "anonymous": false,
      "inputs": [
        {
          "indexed": true,
          "internalType": "address",
          "name": "employee",
          "type": "address"
        },
        {
          "indexed": false,
          "internalType": "string",
          "name": "action",
          "type": "string"
        },
        {
          "indexed": false,
          "internalType": "uint256",
          "name": "timestamp",
          "type": "uint256"
        },
        {
          "indexed": false,
          "internalType": "uint256",
          "name": "day",
          "type": "uint256"
        },
        {
          "indexed": false,
          "internalType": "string",
          "name": "locationName",
          "type": "string"
        },
        {
          "indexed": false,
          "internalType": "string",
          "name": "taskDescription",
          "type": "string"
        }
      ],
      "name": "AuditLogCreated",
      "type": "event"
    },
    {
      "anonymous": false,
      "inputs": [
        {
          "indexed": true,
          "internalType": "address",
          "name": "employee",
          "type": "address"
        }
      ],
      "name": "AuthenticationRevoked",
      "type": "event"
    },
    {
      "anonymous": false,
      "inputs": [
        {
          "indexed": true,
          "internalType": "address",
          "name": "employee",
          "type": "address"
        }
      ],
      "name": "BreakEnded",
      "type": "event"
    },
    {
      "anonymous": false,
      "inputs": [
        {
          "indexed": true,
          "internalType": "address",
          "name": "employee",
          "type": "address"
        },
        {
          "indexed": false,
          "internalType": "uint256",
          "name": "day",
          "type": "uint256"
        },
        {
          "indexed": false,
          "internalType": "uint256",
          "name": "breakCount",
          "type": "uint256"
        },
        {
          "indexed": false,
          "internalType": "uint256",
          "name": "breakHours",
          "type": "uint256"
        },
        {
          "indexed": false,
          "internalType": "uint256",
          "name": "breakMinutes",
          "type": "uint256"
        },
        {
          "indexed": false,
          "internalType": "uint256",
          "name": "breakSeconds",
          "type": "uint256"
        }
      ],
      "name": "BreakInformationLogged",
      "type": "event"
    },
    {
      "anonymous": false,
      "inputs": [
        {
          "indexed": true,
          "internalType": "address",
          "name": "employee",
          "type": "address"
        }
      ],
      "name": "BreakStarted",
      "type": "event"
    },
    {
      "anonymous": false,
      "inputs": [
        {
          "indexed": true,
          "internalType": "address",
          "name": "employee",
          "type": "address"
        },
        {
          "indexed": false,
          "internalType": "string",
          "name": "locationName",
          "type": "string"
        }
      ],
      "name": "EmployeeAddedToLocation",
      "type": "event"
    },
    {
      "anonymous": false,
      "inputs": [
        {
          "indexed": true,
          "internalType": "address",
          "name": "employee",
          "type": "address"
        }
      ],
      "name": "EmployeeAuthenticated",
      "type": "event"
    },
    {
      "anonymous": false,
      "inputs": [
        {
          "indexed": true,
          "internalType": "address",
          "name": "employee",
          "type": "address"
        }
      ],
      "name": "EmployeeClockedIn",
      "type": "event"
    },
    {
      "anonymous": false,
      "inputs": [
        {
          "indexed": true,
          "internalType": "address",
          "name": "employee",
          "type": "address"
        }
      ],
      "name": "EmployeeClockedOut",
      "type": "event"
    },
    {
      "anonymous": false,
      "inputs": [
        {
          "indexed": true,
          "internalType": "address",
          "name": "employee",
          "type": "address"
        },
        {
          "indexed": false,
          "internalType": "string",
          "name": "locationName",
          "type": "string"
        }
      ],
      "name": "EmployeeRemovedFromLocation",
      "type": "event"
    },
    {
      "anonymous": false,
      "inputs": [
        {
          "indexed": false,
          "internalType": "string",
          "name": "locationName",
          "type": "string"
        }
      ],
      "name": "LocationAdded",
      "type": "event"
    },
    {
      "anonymous": false,
      "inputs": [
        {
          "indexed": false,
          "internalType": "string",
          "name": "_locationName",
          "type": "string"
        }
      ],
      "name": "LocationRemoved",
      "type": "event"
    },
    {
      "anonymous": false,
      "inputs": [
        {
          "indexed": true,
          "internalType": "address",
          "name": "supervisor",
          "type": "address"
        }
      ],
      "name": "SupervisorAdded",
      "type": "event"
    },
    {
      "anonymous": false,
      "inputs": [
        {
          "indexed": true,
          "internalType": "address",
          "name": "supervisor",
          "type": "address"
        }
      ],
      "name": "SupervisorRemoved",
      "type": "event"
    },
    {
      "inputs": [
        {
          "internalType": "uint256",
          "name": "",
          "type": "uint256"
        }
      ],
      "name": "employeeAddresses",
      "outputs": [
        {
          "internalType": "address",
          "name": "",
          "type": "address"
        }
      ],
      "stateMutability": "view",
      "type": "function",
      "constant": true
    },
    {
      "inputs": [],
      "name": "hourlyRate",
      "outputs": [
        {
          "internalType": "uint256",
          "name": "",
          "type": "uint256"
        }
      ],
      "stateMutability": "view",
      "type": "function",
      "constant": true
    },
    {
      "inputs": [],
      "name": "overtimeRate",
      "outputs": [
        {
          "internalType": "uint256",
          "name": "",
          "type": "uint256"
        }
      ],
      "stateMutability": "view",
      "type": "function",
      "constant": true
    },
    {
      "inputs": [],
      "name": "owner",
      "outputs": [
        {
          "internalType": "address",
          "name": "",
          "type": "address"
        }
      ],
      "stateMutability": "view",
      "type": "function",
      "constant": true
    },
    {
      "inputs": [],
      "name": "getAllEmployees",
      "outputs": [
        {
          "internalType": "string",
          "name": "",
          "type": "string"
        }
      ],
      "stateMutability": "view",
      "type": "function",
      "constant": true
    },
    {
      "inputs": [
        {
          "internalType": "string",
          "name": "_locationName",
          "type": "string"
        }
      ],
      "name": "addLocation",
      "outputs": [],
      "stateMutability": "nonpayable",
      "type": "function"
    },
    {
      "inputs": [
        {
          "internalType": "address",
          "name": "_employee",
          "type": "address"
        },
        {
          "internalType": "string",
          "name": "_locationName",
          "type": "string"
        },
        {
          "internalType": "enum TimeTracking.EmployeeType",
          "name": "_employeeType",
          "type": "uint8"
        },
        {
          "internalType": "string",
          "name": "_task",
          "type": "string"
        },
        {
          "internalType": "uint256",
          "name": "_requiredWorkHours",
          "type": "uint256"
        }
      ],
      "name": "addEmployeeToLocation",
      "outputs": [],
      "stateMutability": "nonpayable",
      "type": "function"
    },
    {
      "inputs": [
        {
          "internalType": "address",
          "name": "_employee",
          "type": "address"
        }
      ],
      "name": "authenticateEmployee",
      "outputs": [],
      "stateMutability": "nonpayable",
      "type": "function"
    },
    {
      "inputs": [
        {
          "internalType": "address",
          "name": "_employee",
          "type": "address"
        }
      ],
      "name": "revokeAuthentication",
      "outputs": [],
      "stateMutability": "nonpayable",
      "type": "function"
    },
    {
      "inputs": [],
      "name": "clockIn",
      "outputs": [],
      "stateMutability": "nonpayable",
      "type": "function"
    },
    {
      "inputs": [],
      "name": "clockOut",
      "outputs": [],
      "stateMutability": "nonpayable",
      "type": "function"
    },
    {
      "inputs": [],
      "name": "startBreak",
      "outputs": [],
      "stateMutability": "nonpayable",
      "type": "function"
    },
    {
      "inputs": [],
      "name": "endBreak",
      "outputs": [],
      "stateMutability": "nonpayable",
      "type": "function"
    },
    {
      "inputs": [
        {
          "internalType": "address",
          "name": "_employee",
          "type": "address"
        }
      ],
      "name": "getEmployeeTotalTime",
      "outputs": [
        {
          "internalType": "uint256",
          "name": "",
          "type": "uint256"
        },
        {
          "internalType": "uint256",
          "name": "",
          "type": "uint256"
        },
        {
          "internalType": "uint256",
          "name": "",
          "type": "uint256"
        }
      ],
      "stateMutability": "view",
      "type": "function",
      "constant": true
    },
    {
      "inputs": [
        {
          "internalType": "address",
          "name": "_employee",
          "type": "address"
        },
        {
          "internalType": "uint256",
          "name": "_hourlyRate",
          "type": "uint256"
        }
      ],
      "name": "calculatePayroll",
      "outputs": [
        {
          "internalType": "uint256",
          "name": "totalPay",
          "type": "uint256"
        }
      ],
      "stateMutability": "view",
      "type": "function",
      "constant": true
    },
    {
      "inputs": [
        {
          "internalType": "address",
          "name": "_address",
          "type": "address"
        }
      ],
      "name": "isOwner",
      "outputs": [
        {
          "internalType": "bool",
          "name": "",
          "type": "bool"
        }
      ],
      "stateMutability": "view",
      "type": "function",
      "constant": true
    },
    {
      "inputs": [
        {
          "internalType": "address",
          "name": "_address",
          "type": "address"
        }
      ],
      "name": "isSupervisor",
      "outputs": [
        {
          "internalType": "bool",
          "name": "",
          "type": "bool"
        }
      ],
      "stateMutability": "view",
      "type": "function",
      "constant": true
    },
    {
      "inputs": [
        {
          "internalType": "address",
          "name": "_address",
          "type": "address"
        }
      ],
      "name": "isEmployee",
      "outputs": [
        {
          "internalType": "bool",
          "name": "",
          "type": "bool"
        }
      ],
      "stateMutability": "view",
      "type": "function",
      "constant": true
    },
    {
      "inputs": [
        {
          "internalType": "string",
          "name": "_locationName",
          "type": "string"
        }
      ],
      "name": "locationExists",
      "outputs": [
        {
          "internalType": "bool",
          "name": "",
          "type": "bool"
        }
      ],
      "stateMutability": "view",
      "type": "function",
      "constant": true
    }
  ],
  "bytecode": "0x608060405234801561001057600080fd5b50336000806101000a81548173ffffffffffffffffffffffffffffffffffffffff021916908373ffffffffffffffffffffffffffffffffffffffff16021790555060018060003373ffffffffffffffffffffffffffffffffffffffff1673ffffffffffffffffffffffffffffffffffffffff16815260200190815260200160002060006101000a81548160ff021916908315150217905550600a600681905550600f600781905550614f6a806100c76000396000f3fe608060405234801561001057600080fd5b50600436106101215760003560e01c80638da5cb5b116100ad578063dbaf9c6311610071578063dbaf9c63146102f6578063e3366fed14610326578063ea66543f14610344578063ed4928c814610374578063f260842e1461037e57610121565b80638da5cb5b14610264578063a0d9391d14610282578063a876b1c01461029e578063b8ea2c64146102a8578063c80757c7146102c657610121565b80635fddb088116100f45780635fddb0881461019a5780637521720b146101b65780637563d7bb146101e65780637c214d001461020257806381a244591461023457610121565b80632f54bf6e1461012657806353376d1f1461015657806353d6fcec1461017257806359a7b3fe1461017c575b600080fd5b610140600480360381019061013b9190613a1b565b610388565b60405161014d91906146fc565b60405180910390f35b610170600480360381019061016b9190613a1b565b6103e1565b005b61017a610609565b005b610184610c3d565b6040516101919190614a65565b60405180910390f35b6101b460048036038101906101af9190613b30565b610c43565b005b6101d060048036038101906101cb9190613bb6565b610e73565b6040516101dd91906146e1565b60405180910390f35b61020060048036038101906101fb9190613a44565b610eb2565b005b61021c60048036038101906102179190613a1b565b6114b9565b60405161022b93929190614a80565b60405180910390f35b61024e60048036038101906102499190613a1b565b61164a565b60405161025b91906146fc565b60405180910390f35b61026c6116a0565b60405161027991906146e1565b60405180910390f35b61029c60048036038101906102979190613a1b565b6116c4565b005b6102a66118a8565b005b6102b0611d98565b6040516102bd9190614a65565b60405180910390f35b6102e060048036038101906102db9190613b75565b611d9e565b6040516102ed91906146fc565b60405180910390f35b610310600480360381019061030b9190613af4565b611e82565b60405161031d9190614a65565b60405180910390f35b61032e6120bd565b60405161033b919061473b565b60405180910390f35b61035e60048036038101906103599190613a1b565b6124bd565b60405161036b91906146fc565b60405180910390f35b61037c612513565b005b61038661294a565b005b60008060009054906101000a900473ffffffffffffffffffffffffffffffffffffffff1673ffffffffffffffffffffffffffffffffffffffff168273ffffffffffffffffffffffffffffffffffffffff16149050919050565b60008054906101000a900473ffffffffffffffffffffffffffffffffffffffff1673ffffffffffffffffffffffffffffffffffffffff163373ffffffffffffffffffffffffffffffffffffffff161461046f576040517f08c379a0000000000000000000000000000000000000000000000000000000008152600401610466906149a5565b60405180910390fd5b600073ffffffffffffffffffffffffffffffffffffffff168173ffffffffffffffffffffffffffffffffffffffff1614156104df576040517f08c379a00000000000000000000000000000000000000000000000000000000081526004016104d690614a45565b60405180910390fd5b600560008273ffffffffffffffffffffffffffffffffffffffff1673ffffffffffffffffffffffffffffffffffffffff16815260200190815260200160002060009054906101000a900460ff1661056b576040517f08c379a0000000000000000000000000000000000000000000000000000000008152600401610562906149e5565b60405180910390fd5b6000600560008373ffffffffffffffffffffffffffffffffffffffff1673ffffffffffffffffffffffffffffffffffffffff16815260200190815260200160002060006101000a81548160ff0219169083151502179055508073ffffffffffffffffffffffffffffffffffffffff167f81e72379430ba5d943c0ca71e4687a500f03b575c7a88bf6d26ba2ef12c8a76f60405160405180910390a250565b600260003373ffffffffffffffffffffffffffffffffffffffff1673ffffffffffffffffffffffffffffffffffffffff16815260200190815260200160002060009054906101000a900460ff16801561070857506004600360003373ffffffffffffffffffffffffffffffffffffffff1673ffffffffffffffffffffffffffffffffffffffff1681526020019081526020016000206040516106ab91906146af565b908152602001604051809103902060003373ffffffffffffffffffffffffffffffffffffffff1673ffffffffffffffffffffffffffffffffffffffff16815260200190815260200160002060070160009054906101000a900460ff165b610747576040517f08c379a000000000000000000000000000000000000000000000000000000000815260040161073e90614a05565b60405180910390fd5b600560003373ffffffffffffffffffffffffffffffffffffffff1673ffffffffffffffffffffffffffffffffffffffff16815260200190815260200160002060009054906101000a900460ff166107d3576040517f08c379a00000000000000000000000000000000000000000000000000000000081526004016107ca906149e5565b60405180910390fd5b6000600360003373ffffffffffffffffffffffffffffffffffffffff1673ffffffffffffffffffffffffffffffffffffffff168152602001908152602001600020805461081f90614d13565b80601f016020809104026020016040519081016040528092919081815260200182805461084b90614d13565b80156108985780601f1061086d57610100808354040283529160200191610898565b820191906000526020600020905b81548152906001019060200180831161087b57829003601f168201915b5050505050905060008151116108e3576040517f08c379a00000000000000000000000000000000000000000000000000000000081526004016108da90614965565b60405180910390fd5b60006004826040516108f59190614639565b908152602001604051809103902060003373ffffffffffffffffffffffffffffffffffffffff1673ffffffffffffffffffffffffffffffffffffffff16815260200190815260200160002090508060040160009054906101000a900460ff16610993576040517f08c379a000000000000000000000000000000000000000000000000000000000815260040161098a906149c5565b60405180910390fd5b8060040160019054906101000a900460ff16156109e5576040517f08c379a00000000000000000000000000000000000000000000000000000000081526004016109dc90614885565b60405180910390fd5b60008160030154426109f79190614c55565b905060008083600801600085600301548152602001908152602001600020905060005b8180549050811015610ab5576000600b6000848481548110610a65577f4e487b7100000000000000000000000000000000000000000000000000000000600052603260045260246000fd5b90600052602060002001548152602001908152602001600020905080600001548160010154610a949190614c55565b84610a9f9190614b74565b9350508080610aad90614d45565b915050610a1a565b5060008284610ac49190614c55565b90506000610e1082610ad69190614bca565b90506000603c610e1084610aea9190614dbc565b610af49190614bca565b9050603c83610b039190614dbc565b92508660060154821115610b4357866006015482610b219190614c55565b876009016000828254610b349190614b74565b92505081905550866006015491505b81876000016000828254610b579190614b74565b9250508190555080876001016000828254610b729190614b74565b9250508190555082876002016000828254610b8d9190614b74565b9250508190555060008760040160006101000a81548160ff0219169083151502179055503373ffffffffffffffffffffffffffffffffffffffff167f381e085d07e0672fbfd1bfa1aaf4e650043284900d717ca206d524f4658b333a60405160405180910390a2610c33336040518060400160405280600981526020017f436c6f636b204f75740000000000000000000000000000000000000000000000815250612e59565b5050505050505050565b60065481565b600160003373ffffffffffffffffffffffffffffffffffffffff1673ffffffffffffffffffffffffffffffffffffffff16815260200190815260200160002060009054906101000a900460ff1680610ce6575060008054906101000a900473ffffffffffffffffffffffffffffffffffffffff1673ffffffffffffffffffffffffffffffffffffffff163373ffffffffffffffffffffffffffffffffffffffff16145b610d25576040517f08c379a0000000000000000000000000000000000000000000000000000000008152600401610d1c90614905565b60405180910390fd5b60008282905011610d6b576040517f08c379a0000000000000000000000000000000000000000000000000000000008152600401610d6290614845565b60405180910390fd5b610db882828080601f016020809104026020016040519081016040528093929190818152602001838380828437600081840152601f19601f82011690508083019250505050505050611d9e565b15610df8576040517f08c379a0000000000000000000000000000000000000000000000000000000008152600401610def90614985565b60405180910390fd5b600a828290918060018154018082558091505060019003906000526020600020016000909192909192909192909192509190610e35929190613801565b507f290f6f4d7e1481b6ad9b90bea1df5f5f1651ecb2e468e47e09297c11efbe44c38282604051610e67929190614717565b60405180910390a15050565b60088181548110610e8357600080fd5b906000526020600020016000915054906101000a900473ffffffffffffffffffffffffffffffffffffffff1681565b600160003373ffffffffffffffffffffffffffffffffffffffff1673ffffffffffffffffffffffffffffffffffffffff16815260200190815260200160002060009054906101000a900460ff1680610f55575060008054906101000a900473ffffffffffffffffffffffffffffffffffffffff1673ffffffffffffffffffffffffffffffffffffffff163373ffffffffffffffffffffffffffffffffffffffff16145b610f94576040517f08c379a0000000000000000000000000000000000000000000000000000000008152600401610f8b90614905565b60405180910390fd5b600073ffffffffffffffffffffffffffffffffffffffff168773ffffffffffffffffffffffffffffffffffffffff161415611004576040517f08c379a0000000000000000000000000000000000000000000000000000000008152600401610ffb90614a45565b60405180910390fd5b61100d876132de565b61104c576040517f08c379a0000000000000000000000000000000000000000000000000000000008152600401611043906147e5565b60405180910390fd5b6000811015611090576040517f08c379a000000000000000000000000000000000000000000000000000000000815260040161108790614945565b60405180910390fd5b600083839050116110d6576040517f08c379a00000000000000000000000000000000000000000000000000000000081526004016110cd90614925565b60405180910390fd5b61112386868080601f016020809104026020016040519081016040528093929190818152602001838380828437600081840152601f19601f82011690508083019250505050505050611d9e565b611162576040517f08c379a0000000000000000000000000000000000000000000000000000000008152600401611159906148c5565b60405180910390fd5b60048686604051611174929190614620565b908152602001604051809103902060008873ffffffffffffffffffffffffffffffffffffffff1673ffffffffffffffffffffffffffffffffffffffff16815260200190815260200160002060070160009054906101000a900460ff1615611210576040517f08c379a0000000000000000000000000000000000000000000000000000000008152600401611207906148a5565b60405180910390fd5b600060048787604051611224929190614620565b908152602001604051809103902060008973ffffffffffffffffffffffffffffffffffffffff1673ffffffffffffffffffffffffffffffffffffffff1681526020019081526020016000209050600081600001819055506000816003018190555060008160040160016101000a81548160ff02191690831515021790555060008160040160006101000a81548160ff021916908315150217905550848160040160026101000a81548160ff0219169083600281111561130c577f4e487b7100000000000000000000000000000000000000000000000000000000600052602160045260246000fd5b02179055508383826005019190611324929190613801565b5081816006018190555060018160070160006101000a81548160ff021916908315150217905550600081600901819055508686600360008b73ffffffffffffffffffffffffffffffffffffffff1673ffffffffffffffffffffffffffffffffffffffff16815260200190815260200160002091906113a3929190613801565b506001600260008a73ffffffffffffffffffffffffffffffffffffffff1673ffffffffffffffffffffffffffffffffffffffff16815260200190815260200160002060006101000a81548160ff0219169083151502179055506008889080600181540180825580915050600190039060005260206000200160009091909190916101000a81548173ffffffffffffffffffffffffffffffffffffffff021916908373ffffffffffffffffffffffffffffffffffffffff1602179055508773ffffffffffffffffffffffffffffffffffffffff167fe6bd32050d04d05d29770b733dee12eba70d2e5016f263b40552793fccf84fbe88886040516114a7929190614717565b60405180910390a25050505050505050565b600080600080600360008673ffffffffffffffffffffffffffffffffffffffff1673ffffffffffffffffffffffffffffffffffffffff168152602001908152602001600020805461150990614d13565b80601f016020809104026020016040519081016040528092919081815260200182805461153590614d13565b80156115825780601f1061155757610100808354040283529160200191611582565b820191906000526020600020905b81548152906001019060200180831161156557829003601f168201915b5050505050905060008151116115cd576040517f08c379a00000000000000000000000000000000000000000000000000000000081526004016115c4906148e5565b60405180910390fd5b60006004826040516115df9190614639565b908152602001604051809103902060008773ffffffffffffffffffffffffffffffffffffffff1673ffffffffffffffffffffffffffffffffffffffff168152602001908152602001600020905080600001548160010154826002015494509450945050509193909250565b6000600160008373ffffffffffffffffffffffffffffffffffffffff1673ffffffffffffffffffffffffffffffffffffffff16815260200190815260200160002060009054906101000a900460ff169050919050565b60008054906101000a900473ffffffffffffffffffffffffffffffffffffffff1681565b60008054906101000a900473ffffffffffffffffffffffffffffffffffffffff1673ffffffffffffffffffffffffffffffffffffffff163373ffffffffffffffffffffffffffffffffffffffff1614611752576040517f08c379a0000000000000000000000000000000000000000000000000000000008152600401611749906149a5565b60405180910390fd5b600073ffffffffffffffffffffffffffffffffffffffff168173ffffffffffffffffffffffffffffffffffffffff1614156117c2576040517f08c379a00000000000000000000000000000000000000000000000000000000081526004016117b990614a45565b60405180910390fd5b6117cb816132de565b61180a576040517f08c379a0000000000000000000000000000000000000000000000000000000008152600401611801906147e5565b60405180910390fd5b6001600560008373ffffffffffffffffffffffffffffffffffffffff1673ffffffffffffffffffffffffffffffffffffffff16815260200190815260200160002060006101000a81548160ff0219169083151502179055508073ffffffffffffffffffffffffffffffffffffffff167fb6609f736cf901dd9c255910d18c003f17e19b82698c8d277097a3386c7d744c60405160405180910390a250565b600260003373ffffffffffffffffffffffffffffffffffffffff1673ffffffffffffffffffffffffffffffffffffffff16815260200190815260200160002060009054906101000a900460ff1680156119a757506004600360003373ffffffffffffffffffffffffffffffffffffffff1673ffffffffffffffffffffffffffffffffffffffff16815260200190815260200160002060405161194a91906146af565b908152602001604051809103902060003373ffffffffffffffffffffffffffffffffffffffff1673ffffffffffffffffffffffffffffffffffffffff16815260200190815260200160002060070160009054906101000a900460ff165b6119e6576040517f08c379a00000000000000000000000000000000000000000000000000000000081526004016119dd90614a05565b60405180910390fd5b600560003373ffffffffffffffffffffffffffffffffffffffff1673ffffffffffffffffffffffffffffffffffffffff16815260200190815260200160002060009054906101000a900460ff16611a72576040517f08c379a0000000000000000000000000000000000000000000000000000000008152600401611a69906149e5565b60405180910390fd5b6000600360003373ffffffffffffffffffffffffffffffffffffffff1673ffffffffffffffffffffffffffffffffffffffff1681526020019081526020016000208054611abe90614d13565b80601f0160208091040260200160405190810160405280929190818152602001828054611aea90614d13565b8015611b375780601f10611b0c57610100808354040283529160200191611b37565b820191906000526020600020905b815481529060010190602001808311611b1a57829003601f168201915b505050505090506000815111611b82576040517f08c379a0000000000000000000000000000000000000000000000000000000008152600401611b7990614965565b60405180910390fd5b6000600482604051611b949190614639565b908152602001604051809103902060003373ffffffffffffffffffffffffffffffffffffffff1673ffffffffffffffffffffffffffffffffffffffff16815260200190815260200160002090508060040160009054906101000a900460ff16611c32576040517f08c379a0000000000000000000000000000000000000000000000000000000008152600401611c2990614a25565b60405180910390fd5b600060096000815480929190611c4790614d45565b91905055604051602001611c5b91906146c6565b6040516020818303038152906040528051906020012090506040518060600160405280428152602001600081526020016201518042611c9a9190614bca565b815250600b6000838152602001908152602001600020600082015181600001556020820151816001015560408201518160020155905050816008016000836003015481526020019081526020016000208190806001815401808255809150506001900390600052602060002001600090919091909150553373ffffffffffffffffffffffffffffffffffffffff167f34535ef4095d814f92e22561d8ed07a3f268088dca90eb68c1981f6af331533f60405160405180910390a2611d93336040518060400160405280600b81526020017f537461727420427265616b000000000000000000000000000000000000000000815250612e59565b505050565b60075481565b600080825111611de3576040517f08c379a0000000000000000000000000000000000000000000000000000000008152600401611dda90614845565b60405180910390fd5b60005b600a80549050811015611e77578280519060200120600a8281548110611e35577f4e487b7100000000000000000000000000000000000000000000000000000000600052603260045260246000fd5b90600052602060002001604051611e4c9190614609565b60405180910390201415611e64576001915050611e7d565b8080611e6f90614d45565b915050611de6565b50600090505b919050565b600080600360008573ffffffffffffffffffffffffffffffffffffffff1673ffffffffffffffffffffffffffffffffffffffff1681526020019081526020016000208054611ecf90614d13565b80601f0160208091040260200160405190810160405280929190818152602001828054611efb90614d13565b8015611f485780601f10611f1d57610100808354040283529160200191611f48565b820191906000526020600020905b815481529060010190602001808311611f2b57829003601f168201915b505050505090506000815111611f93576040517f08c379a0000000000000000000000000000000000000000000000000000000008152600401611f8a906148e5565b60405180910390fd5b6000600482604051611fa59190614639565b908152602001604051809103902060008673ffffffffffffffffffffffffffffffffffffffff1673ffffffffffffffffffffffffffffffffffffffff1681526020019081526020016000209050600081600001549050600082600101549050600081603c846120149190614bfb565b61201e9190614b74565b9050603c6000881161203257600654612034565b875b8261203f9190614bfb565b6120499190614bca565b9550603c846006015461205c9190614bfb565b8111156120b2576000603c85600601546120769190614bfb565b826120819190614c55565b90506000603c600754836120959190614bfb565b61209f9190614bca565b905080886120ad9190614b74565b975050505b505050505092915050565b606060006040518060600160405280602f8152602001614f06602f9139905060005b6008805490508110156124b557600060088281548110612128577f4e487b7100000000000000000000000000000000000000000000000000000000600052603260045260246000fd5b9060005260206000200160009054906101000a900473ffffffffffffffffffffffffffffffffffffffff1690506000600360008373ffffffffffffffffffffffffffffffffffffffff1673ffffffffffffffffffffffffffffffffffffffff16815260200190815260200160002080546121a190614d13565b80601f01602080910402602001604051908101604052809291908181526020018280546121cd90614d13565b801561221a5780601f106121ef5761010080835404028352916020019161221a565b820191906000526020600020905b8154815290600101906020018083116121fd57829003601f168201915b5050505050905060006004826040516122339190614639565b908152602001604051809103902060008473ffffffffffffffffffffffffffffffffffffffff1673ffffffffffffffffffffffffffffffffffffffff16815260200190815260200160002090508060070160009054906101000a900460ff161561249f576060600060028111156122d3577f4e487b7100000000000000000000000000000000000000000000000000000000600052602160045260246000fd5b8260040160029054906101000a900460ff16600281111561231d577f4e487b7100000000000000000000000000000000000000000000000000000000600052602160045260246000fd5b1415612360576040518060400160405280600981526020017f46756c6c2054696d6500000000000000000000000000000000000000000000008152509050612461565b6001600281111561239a577f4e487b7100000000000000000000000000000000000000000000000000000000600052602160045260246000fd5b8260040160029054906101000a900460ff1660028111156123e4577f4e487b7100000000000000000000000000000000000000000000000000000000600052602160045260246000fd5b1415612427576040518060400160405280600981526020017f506172742054696d6500000000000000000000000000000000000000000000008152509050612460565b6040518060400160405280600a81526020017f436f6e74726163746f720000000000000000000000000000000000000000000081525090505b5b8561246b8561334f565b6124788460000154613380565b8360405160200161248c9493929190614650565b6040516020818303038152906040529550505b50505080806124ad90614d45565b9150506120df565b508091505090565b6000600260008373ffffffffffffffffffffffffffffffffffffffff1673ffffffffffffffffffffffffffffffffffffffff16815260200190815260200160002060009054906101000a900460ff169050919050565b600260003373ffffffffffffffffffffffffffffffffffffffff1673ffffffffffffffffffffffffffffffffffffffff16815260200190815260200160002060009054906101000a900460ff16801561261257506004600360003373ffffffffffffffffffffffffffffffffffffffff1673ffffffffffffffffffffffffffffffffffffffff1681526020019081526020016000206040516125b591906146af565b908152602001604051809103902060003373ffffffffffffffffffffffffffffffffffffffff1673ffffffffffffffffffffffffffffffffffffffff16815260200190815260200160002060070160009054906101000a900460ff165b612651576040517f08c379a000000000000000000000000000000000000000000000000000000000815260040161264890614a05565b60405180910390fd5b600560003373ffffffffffffffffffffffffffffffffffffffff1673ffffffffffffffffffffffffffffffffffffffff16815260200190815260200160002060009054906101000a900460ff166126dd576040517f08c379a00000000000000000000000000000000000000000000000000000000081526004016126d4906149e5565b60405180910390fd5b6000600360003373ffffffffffffffffffffffffffffffffffffffff1673ffffffffffffffffffffffffffffffffffffffff168152602001908152602001600020805461272990614d13565b80601f016020809104026020016040519081016040528092919081815260200182805461275590614d13565b80156127a25780601f10612777576101008083540402835291602001916127a2565b820191906000526020600020905b81548152906001019060200180831161278557829003601f168201915b5050505050905060008151116127ed576040517f08c379a00000000000000000000000000000000000000000000000000000000081526004016127e490614965565b60405180910390fd5b60006004826040516127ff9190614639565b908152602001604051809103902060003373ffffffffffffffffffffffffffffffffffffffff1673ffffffffffffffffffffffffffffffffffffffff16815260200190815260200160002090508060040160009054906101000a900460ff161561289e576040517f08c379a000000000000000000000000000000000000000000000000000000000815260040161289590614805565b60405180910390fd5b60018160040160006101000a81548160ff0219169083151502179055504281600301819055503373ffffffffffffffffffffffffffffffffffffffff167f26447b0ce37ef140deb3a0d4c84d56f946ff4056847a73e62f5d671fe2eb78c460405160405180910390a2612946336040518060400160405280600881526020017f436c6f636b20496e000000000000000000000000000000000000000000000000815250612e59565b5050565b600260003373ffffffffffffffffffffffffffffffffffffffff1673ffffffffffffffffffffffffffffffffffffffff16815260200190815260200160002060009054906101000a900460ff168015612a4957506004600360003373ffffffffffffffffffffffffffffffffffffffff1673ffffffffffffffffffffffffffffffffffffffff1681526020019081526020016000206040516129ec91906146af565b908152602001604051809103902060003373ffffffffffffffffffffffffffffffffffffffff1673ffffffffffffffffffffffffffffffffffffffff16815260200190815260200160002060070160009054906101000a900460ff165b612a88576040517f08c379a0000000000000000000000000000000000000000000000000000000008152600401612a7f90614a05565b60405180910390fd5b600560003373ffffffffffffffffffffffffffffffffffffffff1673ffffffffffffffffffffffffffffffffffffffff16815260200190815260200160002060009054906101000a900460ff16612b14576040517f08c379a0000000000000000000000000000000000000000000000000000000008152600401612b0b906149e5565b60405180910390fd5b6000600360003373ffffffffffffffffffffffffffffffffffffffff1673ffffffffffffffffffffffffffffffffffffffff1681526020019081526020016000208054612b6090614d13565b80601f0160208091040260200160405190810160405280929190818152602001828054612b8c90614d13565b8015612bd95780601f10612bae57610100808354040283529160200191612bd9565b820191906000526020600020905b815481529060010190602001808311612bbc57829003601f168201915b505050505090506000815111612c24576040517f08c379a0000000000000000000000000000000000000000000000000000000008152600401612c1b90614965565b60405180910390fd5b6000600482604051612c369190614639565b908152602001604051809103902060003373ffffffffffffffffffffffffffffffffffffffff1673ffffffffffffffffffffffffffffffffffffffff16815260200190815260200160002090506000816008016000836003015481526020019081526020016000208054905011612ce2576040517f08c379a0000000000000000000000000000000000000000000000000000000008152600401612cd990614825565b60405180910390fd5b60008160080160008360030154815260200190815260200160002060018360080160008560030154815260200190815260200160002080549050612d269190614c55565b81548110612d5d577f4e487b7100000000000000000000000000000000000000000000000000000000600052603260045260246000fd5b906000526020600020015490506000600b600083815260200190815260200160002090506000816001015414612dc8576040517f08c379a0000000000000000000000000000000000000000000000000000000008152600401612dbf906147c5565b60405180910390fd5b4281600101819055503373ffffffffffffffffffffffffffffffffffffffff167f9723f0b57321639182180babf24ae91c888fe0ae2c635fa6b56ef82be5b3fb8560405160405180910390a2612e53336040518060400160405280600981526020017f456e6420427265616b0000000000000000000000000000000000000000000000815250612e59565b50505050565b600073ffffffffffffffffffffffffffffffffffffffff168273ffffffffffffffffffffffffffffffffffffffff161415612ec9576040517f08c379a0000000000000000000000000000000000000000000000000000000008152600401612ec090614a45565b60405180910390fd5b6000815111612f0d576040517f08c379a0000000000000000000000000000000000000000000000000000000008152600401612f0490614865565b60405180910390fd5b6000600360008473ffffffffffffffffffffffffffffffffffffffff1673ffffffffffffffffffffffffffffffffffffffff1681526020019081526020016000208054612f5990614d13565b80601f0160208091040260200160405190810160405280929190818152602001828054612f8590614d13565b8015612fd25780601f10612fa757610100808354040283529160200191612fd2565b820191906000526020600020905b815481529060010190602001808311612fb557829003601f168201915b50505050509050600081511161301d576040517f08c379a0000000000000000000000000000000000000000000000000000000008152600401613014906148e5565b60405180910390fd5b600060048260405161302f9190614639565b908152602001604051809103902060008573ffffffffffffffffffffffffffffffffffffffff1673ffffffffffffffffffffffffffffffffffffffff168152602001908152602001600020600501805461308890614d13565b80601f01602080910402602001604051908101604052809291908181526020018280546130b490614d13565b80156131015780601f106130d657610100808354040283529160200191613101565b820191906000526020600020905b8154815290600101906020018083116130e457829003601f168201915b50505050509050600081511161314c576040517f08c379a000000000000000000000000000000000000000000000000000000000815260040161314390614925565b60405180910390fd5b6000620151804261315d9190614bca565b9050600c6040518060c001604052808773ffffffffffffffffffffffffffffffffffffffff16815260200186815260200142815260200183815260200185815260200184815250908060018154018082558091505060019003906000526020600020906006020160009091909190915060008201518160000160006101000a81548173ffffffffffffffffffffffffffffffffffffffff021916908373ffffffffffffffffffffffffffffffffffffffff1602179055506020820151816001019080519060200190613230929190613887565b5060408201518160020155606082015181600301556080820151816004019080519060200190613261929190613887565b5060a082015181600501908051906020019061327e929190613887565b5050508473ffffffffffffffffffffffffffffffffffffffff167f084587ac02b26e363cd7eb8cad960f831936db6c72e075b0e8a4ef8d3717f72885428487876040516132cf95949392919061475d565b60405180910390a25050505050565b60008073ffffffffffffffffffffffffffffffffffffffff168273ffffffffffffffffffffffffffffffffffffffff161415801561334857503073ffffffffffffffffffffffffffffffffffffffff168273ffffffffffffffffffffffffffffffffffffffff1614155b9050919050565b60606133798260405160200161336591906145ee565b6040516020818303038152906040526133b1565b9050919050565b60606133aa8260405160200161339691906146c6565b6040516020818303038152906040526133b1565b9050919050565b606060006040518060400160405280601081526020017f303132333435363738396162636465660000000000000000000000000000000081525090506000600284516133fd9190614bfb565b60026134099190614b74565b67ffffffffffffffff811115613448577f4e487b7100000000000000000000000000000000000000000000000000000000600052604160045260246000fd5b6040519080825280601f01601f19166020018201604052801561347a5781602001600182028036833780820191505090505b5090507f3000000000000000000000000000000000000000000000000000000000000000816000815181106134d8577f4e487b7100000000000000000000000000000000000000000000000000000000600052603260045260246000fd5b60200101907effffffffffffffffffffffffffffffffffffffffffffffffffffffffffffff1916908160001a9053507f780000000000000000000000000000000000000000000000000000000000000081600181518110613562577f4e487b7100000000000000000000000000000000000000000000000000000000600052603260045260246000fd5b60200101907effffffffffffffffffffffffffffffffffffffffffffffffffffffffffffff1916908160001a90535060005b84518110156137f6578260048683815181106135d9577f4e487b7100000000000000000000000000000000000000000000000000000000600052603260045260246000fd5b602001015160f81c60f81b7effffffffffffffffffffffffffffffffffffffffffffffffffffffffffffff1916901c60f81c60ff1681518110613645577f4e487b7100000000000000000000000000000000000000000000000000000000600052603260045260246000fd5b602001015160f81c60f81b8260028361365e9190614bfb565b600261366a9190614b74565b815181106136a1577f4e487b7100000000000000000000000000000000000000000000000000000000600052603260045260246000fd5b60200101907effffffffffffffffffffffffffffffffffffffffffffffffffffffffffffff1916908160001a90535082600f60f81b86838151811061370f577f4e487b7100000000000000000000000000000000000000000000000000000000600052603260045260246000fd5b602001015160f81c60f81b1660f81c60ff1681518110613758577f4e487b7100000000000000000000000000000000000000000000000000000000600052603260045260246000fd5b602001015160f81c60f81b826002836137719190614bfb565b600361377d9190614b74565b815181106137b4577f4e487b7100000000000000000000000000000000000000000000000000000000600052603260045260246000fd5b60200101907effffffffffffffffffffffffffffffffffffffffffffffffffffffffffffff1916908160001a90535080806137ee90614d45565b915050613594565b508092505050919050565b82805461380d90614d13565b90600052602060002090601f01602090048101928261382f5760008555613876565b82601f1061384857803560ff1916838001178555613876565b82800160010185558215613876579182015b8281111561387557823582559160200191906001019061385a565b5b509050613883919061390d565b5090565b82805461389390614d13565b90600052602060002090601f0160209004810192826138b557600085556138fc565b82601f106138ce57805160ff19168380011785556138fc565b828001600101855582156138fc579182015b828111156138fb5782518255916020019190600101906138e0565b5b509050613909919061390d565b5090565b5b8082111561392657600081600090555060010161390e565b5090565b600061393d61393884614ae8565b614ab7565b90508281526020810184848401111561395557600080fd5b613960848285614cd1565b509392505050565b60008135905061397781614ec7565b92915050565b60008135905061398c81614ede565b92915050565b60008083601f8401126139a457600080fd5b8235905067ffffffffffffffff8111156139bd57600080fd5b6020830191508360018202830111156139d557600080fd5b9250929050565b600082601f8301126139ed57600080fd5b81356139fd84826020860161392a565b91505092915050565b600081359050613a1581614eee565b92915050565b600060208284031215613a2d57600080fd5b6000613a3b84828501613968565b91505092915050565b600080600080600080600060a0888a031215613a5f57600080fd5b6000613a6d8a828b01613968565b975050602088013567ffffffffffffffff811115613a8a57600080fd5b613a968a828b01613992565b96509650506040613aa98a828b0161397d565b945050606088013567ffffffffffffffff811115613ac657600080fd5b613ad28a828b01613992565b93509350506080613ae58a828b01613a06565b91505092959891949750929550565b60008060408385031215613b0757600080fd5b6000613b1585828601613968565b9250506020613b2685828601613a06565b9150509250929050565b60008060208385031215613b4357600080fd5b600083013567ffffffffffffffff811115613b5d57600080fd5b613b6985828601613992565b92509250509250929050565b600060208284031215613b8757600080fd5b600082013567ffffffffffffffff811115613ba157600080fd5b613bad848285016139dc565b91505092915050565b600060208284031215613bc857600080fd5b6000613bd684828501613a06565b91505092915050565b613be881614c89565b82525050565b613bff613bfa82614c89565b614d8e565b82525050565b613c0e81614c9b565b82525050565b60008154613c2181614d13565b613c2b8186614b4d565b94506001821660008114613c465760018114613c5757613c8a565b60ff19831686528186019350613c8a565b613c6085614b18565b60005b83811015613c8257815481890152600182019150602081019050613c63565b838801955050505b50505092915050565b6000613c9f8385614b58565b9350613cac838584614cd1565b613cb583614ea9565b840190509392505050565b6000613ccc8385614b69565b9350613cd9838584614cd1565b82840190509392505050565b6000613cf082614b42565b613cfa8185614b58565b9350613d0a818560208601614ce0565b613d1381614ea9565b840191505092915050565b6000613d2982614b42565b613d338185614b69565b9350613d43818560208601614ce0565b80840191505092915050565b60008154613d5c81614d13565b613d668186614b69565b94506001821660008114613d815760018114613d9257613dc5565b60ff19831686528186019350613dc5565b613d9b85614b2d565b60005b83811015613dbd57815481890152600182019150602081019050613d9e565b838801955050505b50505092915050565b6000613ddb600183614b69565b91507f0a000000000000000000000000000000000000000000000000000000000000006000830152600182019050919050565b6000613e1b601383614b58565b91507f427265616b20616c726561647920656e646564000000000000000000000000006000830152602082019050919050565b6000613e5b601f83614b58565b91507f4572726f723a20496e76616c696420457468657265756d2061646472657373006000830152602082019050919050565b6000613e9b602283614b58565b91507f4572726f723a20456d706c6f79656520616c726561647920636c6f636b65642060008301527f696e0000000000000000000000000000000000000000000000000000000000006020830152604082019050919050565b6000613f01600f83614b58565b91507f4e6f20627265616b20746f20656e6400000000000000000000000000000000006000830152602082019050919050565b6000613f41602483614b58565b91507f4572726f723a204c6f636174696f6e206e616d652063616e6e6f74206265206560008301527f6d707479000000000000000000000000000000000000000000000000000000006020830152604082019050919050565b6000613fa7601d83614b58565b91507f4572726f723a20416374696f6e2063616e6e6f7420626520656d7074790000006000830152602082019050919050565b6000613fe7603283614b58565b91507f4572726f723a20456d706c6f796565206d75737420656e6420627265616b206260008301527f65666f726520636c6f636b696e67206f757400000000000000000000000000006020830152604082019050919050565b600061404d602f83614b58565b91507f4572726f723a20456d706c6f79656520616c726561647920657869737473206960008301527f6e2074686973206c6f636174696f6e00000000000000000000000000000000006020830152604082019050919050565b60006140b3601e83614b58565b91507f4572726f723a204c6f636174696f6e20646f6573206e6f7420657869737400006000830152602082019050919050565b60006140f3603083614b58565b91507f4572726f723a20456d706c6f796565206e6f74206173736f636961746564207760008301527f69746820616e79206c6f636174696f6e000000000000000000000000000000006020830152604082019050919050565b6000614159604683614b58565b91507f4572726f723a204f6e6c792073757065727669736f727320616e64207468652060008301527f636f6e7472616374206f776e65722063616e20706572666f726d20746869732060208301527f616374696f6e00000000000000000000000000000000000000000000000000006040830152606082019050919050565b60006141e5602783614b58565b91507f4572726f723a205461736b206465736372697074696f6e2063616e6e6f74206260008301527f6520656d707479000000000000000000000000000000000000000000000000006020830152604082019050919050565b600061424b602c83614b58565b91507f4572726f723a20526571756972656420776f726b20686f7572732063616e277460008301527f206265206e6567617469766500000000000000000000000000000000000000006020830152604082019050919050565b60006142b1602983614b58565b91507f456d706c6f796565206e6f74206173736f636961746564207769746820616e7960008301527f206c6f636174696f6e00000000000000000000000000000000000000000000006020830152604082019050919050565b6000614317601e83614b58565b91507f4572726f723a204c6f636174696f6e20616c72656164792065786973747300006000830152602082019050919050565b6000614357603683614b58565b91507f4572726f723a204f6e6c792074686520636f6e7472616374206f776e6572206360008301527f616e20706572666f726d207468697320616374696f6e000000000000000000006020830152604082019050919050565b60006143bd600383614b69565b91507f202d2000000000000000000000000000000000000000000000000000000000006000830152600382019050919050565b60006143fd602f83614b58565b91507f4572726f723a20456d706c6f796565206d75737420626520636c6f636b65642060008301527f696e20746f20636c6f636b206f757400000000000000000000000000000000006020830152604082019050919050565b6000614463602183614b58565b91507f4572726f723a20456d706c6f796565206e6f742061757468656e74696361746560008301527f64000000000000000000000000000000000000000000000000000000000000006020830152604082019050919050565b60006144c9602783614b58565b91507f4572726f723a204e6f742061207265676973746572656420616374697665206560008301527f6d706c6f796565000000000000000000000000000000000000000000000000006020830152604082019050919050565b600061452f603383614b58565b91507f4572726f723a20456d706c6f796565206d75737420626520636c6f636b65642060008301527f696e20746f207374617274206120627265616b000000000000000000000000006020830152604082019050919050565b6000614595601f83614b58565b91507f4572726f723a20496e76616c696420656d706c6f7965652061646472657373006000830152602082019050919050565b6145d181614cc7565b82525050565b6145e86145e382614cc7565b614db2565b82525050565b60006145fa8284613bee565b60148201915081905092915050565b60006146158284613c14565b915081905092915050565b600061462d828486613cc0565b91508190509392505050565b60006146458284613d1e565b915081905092915050565b600061465c8287613d1e565b915061466782613dce565b91506146738286613d1e565b915061467e826143b0565b915061468a8285613d1e565b9150614695826143b0565b91506146a18284613d1e565b915081905095945050505050565b60006146bb8284613d4f565b915081905092915050565b60006146d282846145d7565b60208201915081905092915050565b60006020820190506146f66000830184613bdf565b92915050565b60006020820190506147116000830184613c05565b92915050565b60006020820190508181036000830152614732818486613c93565b90509392505050565b600060208201905081810360008301526147558184613ce5565b905092915050565b600060a08201905081810360008301526147778188613ce5565b905061478660208301876145c8565b61479360408301866145c8565b81810360608301526147a58185613ce5565b905081810360808301526147b98184613ce5565b90509695505050505050565b600060208201905081810360008301526147de81613e0e565b9050919050565b600060208201905081810360008301526147fe81613e4e565b9050919050565b6000602082019050818103600083015261481e81613e8e565b9050919050565b6000602082019050818103600083015261483e81613ef4565b9050919050565b6000602082019050818103600083015261485e81613f34565b9050919050565b6000602082019050818103600083015261487e81613f9a565b9050919050565b6000602082019050818103600083015261489e81613fda565b9050919050565b600060208201905081810360008301526148be81614040565b9050919050565b600060208201905081810360008301526148de816140a6565b9050919050565b600060208201905081810360008301526148fe816140e6565b9050919050565b6000602082019050818103600083015261491e8161414c565b9050919050565b6000602082019050818103600083015261493e816141d8565b9050919050565b6000602082019050818103600083015261495e8161423e565b9050919050565b6000602082019050818103600083015261497e816142a4565b9050919050565b6000602082019050818103600083015261499e8161430a565b9050919050565b600060208201905081810360008301526149be8161434a565b9050919050565b600060208201905081810360008301526149de816143f0565b9050919050565b600060208201905081810360008301526149fe81614456565b9050919050565b60006020820190508181036000830152614a1e816144bc565b9050919050565b60006020820190508181036000830152614a3e81614522565b9050919050565b60006020820190508181036000830152614a5e81614588565b9050919050565b6000602082019050614a7a60008301846145c8565b92915050565b6000606082019050614a9560008301866145c8565b614aa260208301856145c8565b614aaf60408301846145c8565b949350505050565b6000604051905081810181811067ffffffffffffffff82111715614ade57614add614e7a565b5b8060405250919050565b600067ffffffffffffffff821115614b0357614b02614e7a565b5b601f19601f8301169050602081019050919050565b60008190508160005260206000209050919050565b60008190508160005260206000209050919050565b600081519050919050565b600081905092915050565b600082825260208201905092915050565b600081905092915050565b6000614b7f82614cc7565b9150614b8a83614cc7565b9250827fffffffffffffffffffffffffffffffffffffffffffffffffffffffffffffffff03821115614bbf57614bbe614ded565b5b828201905092915050565b6000614bd582614cc7565b9150614be083614cc7565b925082614bf057614bef614e1c565b5b828204905092915050565b6000614c0682614cc7565b9150614c1183614cc7565b9250817fffffffffffffffffffffffffffffffffffffffffffffffffffffffffffffffff0483118215151615614c4a57614c49614ded565b5b828202905092915050565b6000614c6082614cc7565b9150614c6b83614cc7565b925082821015614c7e57614c7d614ded565b5b828203905092915050565b6000614c9482614ca7565b9050919050565b60008115159050919050565b600073ffffffffffffffffffffffffffffffffffffffff82169050919050565b6000819050919050565b82818337600083830152505050565b60005b83811015614cfe578082015181840152602081019050614ce3565b83811115614d0d576000848401525b50505050565b60006002820490506001821680614d2b57607f821691505b60208210811415614d3f57614d3e614e4b565b5b50919050565b6000614d5082614cc7565b91507fffffffffffffffffffffffffffffffffffffffffffffffffffffffffffffffff821415614d8357614d82614ded565b5b600182019050919050565b6000614d9982614da0565b9050919050565b6000614dab82614eba565b9050919050565b6000819050919050565b6000614dc782614cc7565b9150614dd283614cc7565b925082614de257614de1614e1c565b5b828206905092915050565b7f4e487b7100000000000000000000000000000000000000000000000000000000600052601160045260246000fd5b7f4e487b7100000000000000000000000000000000000000000000000000000000600052601260045260246000fd5b7f4e487b7100000000000000000000000000000000000000000000000000000000600052602260045260246000fd5b7f4e487b7100000000000000000000000000000000000000000000000000000000600052604160045260246000fd5b6000601f19601f8301169050919050565b60008160601b9050919050565b614ed081614c89565b8114614edb57600080fd5b50565b60038110614eeb57600080fd5b50565b614ef781614cc7565b8114614f0257600080fd5b5056fe456d706c6f7965652041646472657373202d20546f74616c20486f757273202d20456d706c6f79656520547970650aa264697066735822122035e77864f926fa5018a97afa54342657d7533e7ee59c6ab0fa892f700fe6f93364736f6c63430008000033",
  "immutableReferences": {},
  "source": "//SPDX-License-Identifier: MIT\npragma solidity ^0.8.0;\n\ncontract TimeTracking {\n    address public owner;\n    mapping(address => bool) private supervisors;\n    mapping(address => bool) private employees;\n    mapping(address => string) private employeeLocations;\n    mapping(string => mapping(address => Employee)) private locationEmployees;\n    mapping(address => bool) private authenticatedEmployees;\n\n    uint public hourlyRate;\n    uint public overtimeRate;\n    address[] public employeeAddresses;\n\n    enum EmployeeType { FullTime, PartTime, Contractor }\n\n    struct Break {\n        uint startTime;\n        uint endTime;\n        uint day;\n    }\n uint private breakCounter;\n    struct Employee {\n    uint totalHours;\n    uint totalMinutes;  \n        uint totalSeconds;  \n    uint clockInTime;\n    bool isClockedIn;\n    bool isOnBreak;\n    EmployeeType employeeType;\n    string task;\n    uint requiredWorkHours;\n    bool isActive;\n    mapping(uint => bytes32[]) workPeriodBreaks;  // New field to replace 'breaks'\n    uint overtime;\n}\n\n\n    struct AuditLog {\n        address employee;\n        string action;\n        uint timestamp;\n        uint day;\n        string locationName;\n        string taskDescription;\n    }\n\n    string[] private locations;\n    mapping(bytes32 => Break) private breaks;  // Mapping to store Break structs\n    AuditLog[] private auditLogs;\n\n\n    event SupervisorAdded(address indexed supervisor);\n    event SupervisorRemoved(address indexed supervisor);\n    event LocationAdded(string locationName);\n    event LocationRemoved(string _locationName);\n\n    event EmployeeAddedToLocation(address indexed employee, string locationName);\n    event EmployeeRemovedFromLocation(address indexed employee, string locationName);\n    event EmployeeClockedIn(address indexed employee);\n    event EmployeeClockedOut(address indexed employee);\n    event BreakStarted(address indexed employee);\n    event BreakInformationLogged(address indexed employee, uint day, uint breakCount, uint breakHours, uint breakMinutes, uint breakSeconds);\n\n    event BreakEnded(address indexed employee);\n    event EmployeeAuthenticated(address indexed employee);\n    event AuthenticationRevoked(address indexed employee);\n   event AuditLogCreated(address indexed employee, string action, uint timestamp, uint day, string locationName, string taskDescription);\n\n\n    modifier onlyOwner() {\n        require(msg.sender == owner, \"Error: Only the contract owner can perform this action\");\n        _;\n    }\n\n    modifier onlySupervisorOrOwner() {\n        require(supervisors[msg.sender] || msg.sender == owner, \"Error: Only supervisors and the contract owner can perform this action\");\n        _;\n    }\n\n    modifier onlyActiveEmployee() {\n        require(employees[msg.sender] && locationEmployees[employeeLocations[msg.sender]][msg.sender].isActive, \"Error: Not a registered active employee\");\n        _;\n    }\n\n    constructor() {\n        owner = msg.sender;\n        supervisors[msg.sender] = true;\n        hourlyRate = 10; // $10 per hour\n        overtimeRate = 15; //\n    }\n function isValidEthereumAddress(address _address) internal view returns (bool) {\n    return (_address != address(0) && _address != address(this));\n}\nfunction getAllEmployees() public view returns (string memory) {\n    string memory result = \"Employee Address - Total Hours - Employee Type\\n\";\n    for (uint i = 0; i < employeeAddresses.length; i++) {\n        address employeeAddress = employeeAddresses[i];\n        string memory locationName = employeeLocations[employeeAddress];\n        Employee storage employee = locationEmployees[locationName][employeeAddress];  // Use 'storage' instead of 'memory'\n        if (employee.isActive) {\n            string memory employeeType;\n            if (employee.employeeType == EmployeeType.FullTime) {\n                employeeType = \"Full Time\";\n            } else if (employee.employeeType == EmployeeType.PartTime) {\n                employeeType = \"Part Time\";\n            } else {\n                employeeType = \"Contractor\";\n            }\n            result = string(abi.encodePacked(result, \"\\n\", toString(employeeAddress), \" - \", toString(employee.totalHours), \" - \", employeeType));\n        }\n    }\n    return result;\n}\n\nfunction addLocation(string calldata _locationName) external onlySupervisorOrOwner {\n    require(bytes(_locationName).length > 0, \"Error: Location name cannot be empty\");\n    require(!locationExists(_locationName), \"Error: Location already exists\");\n\n    locations.push(_locationName);\n    emit LocationAdded(_locationName);\n}\n\nfunction addEmployeeToLocation(address _employee, string calldata _locationName, EmployeeType _employeeType, string calldata _task, uint _requiredWorkHours) external onlySupervisorOrOwner {\n    require(_employee != address(0), \"Error: Invalid employee address\");\n    require(isValidEthereumAddress(_employee), \"Error: Invalid Ethereum address\");\n    require(_requiredWorkHours >= 0, \"Error: Required work hours can't be negative\");\n    require(bytes(_task).length > 0, \"Error: Task description cannot be empty\");\n    require(locationExists(_locationName), \"Error: Location does not exist\");\n    require(!locationEmployees[_locationName][_employee].isActive, \"Error: Employee already exists in this location\");\n\n    Employee storage newEmployee = locationEmployees[_locationName][_employee];\n    newEmployee.totalHours = 0;\n    newEmployee.clockInTime = 0;\n    newEmployee.isOnBreak = false;\n    newEmployee.isClockedIn = false;\n    newEmployee.employeeType = _employeeType;\n    newEmployee.task = _task;\n    newEmployee.requiredWorkHours = _requiredWorkHours;\n    newEmployee.isActive = true;\n    newEmployee.overtime = 0;\n\n    employeeLocations[_employee] = _locationName;\n    employees[_employee] = true;\n\n    // Add the employee address to the array\n    employeeAddresses.push(_employee);\n\n    emit EmployeeAddedToLocation(_employee, _locationName);\n}\n  \n\n\nfunction authenticateEmployee(address _employee) external onlyOwner {\n    require(_employee != address(0), \"Error: Invalid employee address\");\n    require(isValidEthereumAddress(_employee), \"Error: Invalid Ethereum address\");\n\n    authenticatedEmployees[_employee] = true;\n    emit EmployeeAuthenticated(_employee);\n}\n\n\n\nfunction revokeAuthentication(address _employee) external onlyOwner {\n    require(_employee != address(0), \"Error: Invalid employee address\");\n    require(authenticatedEmployees[_employee], \"Error: Employee not authenticated\");\n    authenticatedEmployees[_employee] = false;\n    emit AuthenticationRevoked(_employee);\n}\n\nfunction clockIn() external onlyActiveEmployee {\n    require(authenticatedEmployees[msg.sender], \"Error: Employee not authenticated\");\n    string memory locationName = employeeLocations[msg.sender];\n    require(bytes(locationName).length > 0, \"Employee not associated with any location\");\n\n    Employee storage employee = locationEmployees[locationName][msg.sender];\n    require(!employee.isClockedIn, \"Error: Employee already clocked in\");\n\n    employee.isClockedIn = true;\n    employee.clockInTime = block.timestamp;\n    emit EmployeeClockedIn(msg.sender);\n    emitAuditLog(msg.sender, \"Clock In\");\n}\n\nfunction clockOut() external onlyActiveEmployee {\n    require(authenticatedEmployees[msg.sender], \"Error: Employee not authenticated\");\n    string memory locationName = employeeLocations[msg.sender];\n    require(bytes(locationName).length > 0, \"Employee not associated with any location\");\n\n    Employee storage employee = locationEmployees[locationName][msg.sender];\n    require(employee.isClockedIn, \"Error: Employee must be clocked in to clock out\");\n\n    // Check if the employee is on a break\n    if(employee.isOnBreak) {\n        revert(\"Error: Employee must end break before clocking out\");\n    }\n\n    uint totalWorkTime = block.timestamp - employee.clockInTime;\n    uint totalBreakTime = 0;\n\n    // Calculate total break time for the current work period\n    bytes32[] storage workPeriodBreaks = employee.workPeriodBreaks[employee.clockInTime];\n    for (uint i = 0; i < workPeriodBreaks.length; i++) {\n        Break storage breakObject = breaks[workPeriodBreaks[i]];\n        totalBreakTime += breakObject.endTime - breakObject.startTime;\n    }\n\n    uint workSeconds = totalWorkTime - totalBreakTime;\n    uint workHours = workSeconds / 3600;\n    uint workMinutes = (workSeconds % 3600) / 60;\n    workSeconds = workSeconds % 60;\n    if (workHours > employee.requiredWorkHours) {\n        employee.overtime += workHours - employee.requiredWorkHours;\n        workHours = employee.requiredWorkHours;\n    }\n    employee.totalHours += workHours;\n    employee.totalMinutes += workMinutes;\n    employee.totalSeconds += workSeconds;\n    employee.isClockedIn = false;\n    emit EmployeeClockedOut(msg.sender);\n    emitAuditLog(msg.sender, \"Clock Out\");\n}\n\n\n    function startBreak() external onlyActiveEmployee {\n    require(authenticatedEmployees[msg.sender], \"Error: Employee not authenticated\");\n    string memory locationName = employeeLocations[msg.sender];\n    require(bytes(locationName).length > 0, \"Employee not associated with any location\");\n\n    Employee storage employee = locationEmployees[locationName][msg.sender];\n    require(employee.isClockedIn, \"Error: Employee must be clocked in to start a break\");\n\n    bytes32 breakId = keccak256(abi.encodePacked(breakCounter++));\n    breaks[breakId] = Break(block.timestamp, 0, block.timestamp / 1 days);\n    employee.workPeriodBreaks[employee.clockInTime].push(breakId);\n\n    emit BreakStarted(msg.sender);\n    emitAuditLog(msg.sender, \"Start Break\");    \n}\n\nfunction endBreak() external onlyActiveEmployee {\n    require(authenticatedEmployees[msg.sender], \"Error: Employee not authenticated\");\n    string memory locationName = employeeLocations[msg.sender];\n    require(bytes(locationName).length > 0, \"Employee not associated with any location\");\n\n    Employee storage employee = locationEmployees[locationName][msg.sender];\n    require(employee.workPeriodBreaks[employee.clockInTime].length > 0, \"No break to end\");\n\n    bytes32 breakId = employee.workPeriodBreaks[employee.clockInTime][employee.workPeriodBreaks[employee.clockInTime].length - 1];\n    Break storage breakObject = breaks[breakId];\n    require(breakObject.endTime == 0, \"Break already ended\");\n\n    breakObject.endTime = block.timestamp;\n    emit BreakEnded(msg.sender);\n    emitAuditLog(msg.sender, \"End Break\");    \n}\n\n function getEmployeeTotalTime(address _employee) external view returns (uint, uint, uint) {\n    string memory locationName = employeeLocations[_employee];\n    require(bytes(locationName).length > 0, \"Error: Employee not associated with any location\");\n\n    Employee storage employee = locationEmployees[locationName][_employee];\n    return (employee.totalHours, employee.totalMinutes, employee.totalSeconds);\n}\n\nfunction calculatePayroll(address _employee, uint _hourlyRate) external view returns (uint totalPay) {\n    string memory locationName = employeeLocations[_employee];\n    require(bytes(locationName).length > 0, \"Error: Employee not associated with any location\");\n\n    Employee storage employee = locationEmployees[locationName][_employee];\n    uint totalHours = employee.totalHours;\n    uint totalMinutes = employee.totalMinutes;\n    uint totalWorkTimeInMinutes = totalHours * 60 + totalMinutes;\n    totalPay = totalWorkTimeInMinutes * (_hourlyRate > 0 ? _hourlyRate : hourlyRate) / 60;\n\n    if (totalWorkTimeInMinutes > employee.requiredWorkHours * 60) {\n        uint overtimeMinutes = totalWorkTimeInMinutes - employee.requiredWorkHours * 60;\n        uint overtimePay = overtimeMinutes * overtimeRate / 60;\n        totalPay += overtimePay;\n    }\n\n    return totalPay;\n}\n\n\n\n\n   \nfunction isOwner(address _address) public view returns (bool) {\n    return _address == owner;\n}\n\nfunction isSupervisor(address _address) public view returns (bool) {\n    return supervisors[_address];\n}\n\nfunction isEmployee(address _address) public view returns (bool) {\n    return employees[_address];\n}\n\n\nfunction locationExists(string memory _locationName) public view returns (bool) {\n    require(bytes(_locationName).length > 0, \"Error: Location name cannot be empty\");\n\n    for (uint i = 0; i < locations.length; i++) {\n        if (keccak256(bytes(locations[i])) == keccak256(bytes(_locationName))) {\n            return true;\n        }\n    }\n    return false;\n}\n\n   function emitAuditLog(address _employee, string memory _action) private {\n    require(_employee != address(0), \"Error: Invalid employee address\");\n    require(bytes(_action).length > 0, \"Error: Action cannot be empty\");\n\n    string memory locationName = employeeLocations[_employee];\n    require(bytes(locationName).length > 0, \"Error: Employee not associated with any location\");\n\n    string memory taskDescription = locationEmployees[locationName][_employee].task;\n    require(bytes(taskDescription).length > 0, \"Error: Task description cannot be empty\");\n\n    uint day = block.timestamp / 1 days;\n\n    auditLogs.push(AuditLog(_employee, _action, block.timestamp, day, locationName, taskDescription));\n    emit AuditLogCreated(_employee, _action, block.timestamp, day, locationName, taskDescription);\n}\n\n    function toString(address account) internal pure returns(string memory) {\n        return toString(abi.encodePacked(account));\n    }\n\n    function toString(uint256 value) internal pure returns(string memory) {\n        return toString(abi.encodePacked(value));\n    }\n\n    function toString(bytes memory data) internal pure returns(string memory) {\n        bytes memory alphabet = \"0123456789abcdef\";\n\n        bytes memory str = new bytes(2 + data.length * 2);\n        str[0] = \"0\";\n        str[1] = \"x\";\n        for (uint i = 0; i < data.length; i++) {\n            str[2+i*2] = alphabet[uint(uint8(data[i] >> 4))];\n            str[3+i*2] = alphabet[uint(uint8(data[i] & 0x0f))];\n        }\n        return string(str);\n    }\n\n\n\n\n\n\n\n    \n\n}",
  "sourcePath": "/Users/user/Desktop/untitled folder 6/contracts/TimeTracking.sol",
  "compiler": {
    "name": "solc",
    "version": "0.8.0+commit.c7dfd78e.Emscripten.clang"
  },
  "schemaVersion": "3.4.16",
  "updatedAt": "2024-04-03T15:05:38.623Z",
  "networkType": "ethereum",
  "devdoc": {
    "kind": "dev",
    "methods": {},
    "version": 1
  },
  "userdoc": {
    "kind": "user",
    "methods": {},
    "version": 1
  }
}